:020000040800F2
:10000000080D002011030008190300081B03000855
:100010001D0300081F030008210300080000000062
:1000200000000000000000000000000023030008A2
:1000300025030008000000002703000805530008FE
:100040002B0300082B0300082B0300082B030008D8
:100050002B0300082B0300082B0300082B030008C8
:100060002B0300082B0300082B0300082B030008B8
:100070002B0300082B0300082B0300082B030008A8
:100080002B030008453400082B0300082B0300084D
:100090002B0300082B0300082B0300082B03000888
:1000A0002B0300082B0300082B0300082B03000878
:1000B0002B0300082B0300082B030008ED34000875
:1000C0002B0300082B0300082B0300082B03000858
:1000D0002B0300082B030008AD5400082B03000875
:1000E0002B0300082B0300082B0300082B03000838
:1000F0002B0300082B0300082B0300082B03000828
:100100000000000000000000000000002B030008B9
:100110002B0300082B0300082B0300082B03000807
:100120002B0300082B0300082B0300082B030008F7
:100130002B0300082B030008000000000000000053
:100140002B0300082B0300082B030008000000000D
:10015000000000000000000000000000000000009F
:1001600000000000000000002B0300082B03000823
:100170002B03000800000000000000000000000049
:10018000000000002B03000800F002F800F0B0F8B7
:1001900014A696E8000CB244B344DA4501D100F04D
:1001A000A7F8BAE80F000FA696E83000A5EB040503
:1001B00004EB0607AAEB0704A7F101074FEA1515A0
:1001C0004FEA3414A4F10104AC4201D300F090F8DA
:1001D00013F0010F18BFFB1A43F0010300F001F800
:1001E000DBE718476C6E00008C6E0000103A24BFED
:1001F00078C878C1FAD8520724BF30C830C144BF8C
:1002000004680C6070470000704700000023002461
:1002100000250026103A28BF78C1FBD8520728BF16
:1002200030C148BF0B6070476E2900F045827029CD
:1002300000F09983662906F08085652906F07D85A2
:10024000672906F07A85612906F0798503681B0A1B
:1002500028BF41F08001692900F0F281642900F093
:10026000EF81752900F0EC816F2900F02783782950
:1002700000F06583E92900F0C182E42900F0BE8224
:10028000F52900F0BB82EF2900F02483F82900F063
:1002900064830368DB0928BF41F08001632901F012
:1002A000FF83732901F00484E32901F00F84F3290B
:1002B00001F01484002070471FB506F029FD9DE869
:1002C000030002F073FC02F073F904000020002127
:1002D00006F016FB401C60600020002106F0FAFAD0
:1002E000E06002F057F81FBD10B502F0BCF810BD79
:1002F00002F030F91146FFF7DFFF05F05DFC02F078
:10030000FDFB03B4FFF7F0FF03BC03F003F80000AC
:100310000948804709480047FEE7FEE7FEE7FEE799
:10032000FEE7FEE7FEE7FEE7FEE7FEE704480549D5
:10033000054A064B704700009954000889010008DF
:1003400008070020080D00200809002008090020E7
:100350000FB4044910B503AA029800F0DFF910BCED
:100360005DF814FB6C0000200FB41CB5084B06AA06
:100370007B4469460090059800F0B7F904460020D8
:10038000694600F0C5F920461CBC5DF814FB00006E
:100390009D0300000FB400B58DB010A90990009125
:1003A0000B904FF0FF300A9000200C9006487844E4
:1003B0000690064878446A4607900F9909A800F00D
:1003C00069FD0DB05DF814FB030B00001B0B000072
:1003D000401ECAB210F8011F8A4202D00029F9D18A
:1003E0000020704740EA0103024630B59B0710D158
:1003F0004FF0013400E008C208C91D1B9D4315EAF7
:10040000C41FF8D013F0FF0102F8011B0DD01B0A26
:10041000F8E711F8013B002B02F8013B05D011F879
:10042000013B002B02F8013BF3D130BD10B5431C5A
:1004300002E010F8011B71B18107FAD14FF00132CF
:1004400002C88C1A8C4314EAC211F9D0C01A0A06E9
:1004500003D0C01E10BDC01A10BD0A0401D0801EFA
:1004600010BD0902FCD0401E10BD032A40F23080AE
:1004700010F0030C00F0158011F8013BBCF1020FE5
:10048000624498BF11F801CB00F8013B38BF11F866
:10049000013BA2F1040298BF00F801CB38BF00F87D
:1004A000013B11F0030300F08B86083AC0F008808E
:1004B00051F8043B083A51F804CBA0E80810F5E7DE
:1004C000121D5CBF51F8043B40F8043BAFF30080C1
:1004D000D20724BF11F8013B11F801CB48BF11F836
:1004E000012B24BF00F8013B00F801CB48BF00F806
:1004F000012B70470000000030B44FF0013C50F871
:10050000042B51F8043BCCFA52F4D51A20D1FCB993
:1005100050F8042B51F8043BCCFA52F4D51A17D1F9
:10052000B4B950F8042B51F8043BCCFA52F4D51A64
:100530000ED16CB950F8042B51F8043BCCFA52F4AC
:10054000D51A05D1002CDAD030BC4FF0000070472E
:1005500029BAB1FA81F111F01801D1F120008440DB
:10056000F2D1CA40CB4012F0FF0213F0FF0330BCBF
:10057000D01A704770477047704770B50446856958
:100580000068C10601D5302600E02026C00707D04C
:1005900070BDD4E9012130469047206A401C20629A
:1005A0006D1EF6D570BD70B5044685690078C0072C
:1005B00007D170BDD4E9012120209047206A401C5A
:1005C00020626D1EF6D570BD09684A0501D540B29E
:1005D0007047C905FCD500B2704709684A0501D5C6
:1005E000C0B27047C905FCD580B2704770B50C46E3
:1005F0000546012A05D02878800600D5EA6900233F
:1006000002E0012305E05B1C934202D2E05C00287B
:10061000F9D1A869E618C01AA861286A18442862A6
:100620002846FFF7AAFF04E0D5E9012114F8010BE1
:100630009047B442F8D32846FFF7B5FF70BD0000DD
:100640002DE9F0410646002410687529314616A5AB
:1006500010D0FFF7B9FF002802DA404213A507E0E7
:1006600031688A0701D512A502E0490704D511A512
:10067000012401E0FFF7B1FF00210A2206F124075F
:1006800009E0B0FBF2FCB0FBF2F302FB1C003030DF
:1006900078541846491C0028F3D123462A46304690
:1006A000BDE8F04100F00CBE000000002D0000008D
:1006B0002B0000002000000011680268006A53054A
:1006C00001D508700AE0D30501D5088006E01306BD
:1006D00003D5C217C1E9000200E00860012070479D
:1006E00001694A1C02610878704700B58FB0CDE9F6
:1006F00001310021059105497944CDE903101146E6
:10070000684600F03BF90FB000BD0000E5FFFFFFB9
:100710000A6802F8010B0A6070470000074B70B5C9
:100720000D467B44FFF7E1FF0446284601F02DFE0D
:1007300010B14FF0FF3070BD204670BD0761000062
:100740002DE9FF5F15468A460446DFF8AC80F84481
:100750000027D8E900103E46CDE9001010E03AF835
:1007600016106A4602A801F0D1FE411C07D021787C
:10077000890603D5E269391891420DD80744761CE1
:100780002078800602D5E069B84205DDAE42E6DB9E
:100790003AF816000028E2D1A069C01BA0612046EB
:1007A000FFF7EBFED8E90010CDE90010002017E0BC
:1007B0003AF818106A4602A801F0A8FEB0F1FF3F0F
:1007C00081460BD000250DF1080B05E0D4E901218D
:1007D0001BF8050090476D1C4D45F7D308F101004B
:1007E000B0428046E4DB206A384420622046FFF7AE
:1007F000DAFEBDE8FF9F0000EE6600002DE9F04143
:100800008046D21D22F007020025D2E90002F52918
:1008100015A614D0011E72F1000106DA0023D0EBF8
:10082000030063EB020211A608E0D8F800108B0762
:1008300001D50FA602E0490701D50EA601251146F4
:10084000002408F1240704E000F0ECFC30323A55B3
:10085000641C50EA0102F7D12B463246214640463D
:10086000BDE8F04100F02CBD000000002D000000AC
:100870002B0000002000000030B4002100F124040F
:1008800008E002F00705D208303542EA4372DB087F
:100890006554491C52EA0305F3D10468002310A2F1
:1008A000250708D504F020040C4304D0C4690123B3
:1008B0000CA2641EC46130BC00F002BD10B5044639
:1008C00021461068FFF789FE02462046BDE8104029
:1008D0000023D1E7D21D22F00701D1E90023CBE7A5
:1008E0000000000030000000F0B40D46018809054A
:1008F00002D5214C7C4402E01F4C7C440E34002184
:1009000000F1240608E002F00F071209E75D42EA51
:1009100003721B097754491C52EA0307F3D102788A
:100920000023120704D5702D06D009B1022311341B
:100930002246F0BC00F0C4BC01231034F8E770B5C7
:1009400004460D4621461068FFF747FE0246294639
:100950002046BDE870400023C6E7D21D22F0070301
:10096000D3E90023C0E70368126843F02003036063
:100970000823C3610023B7E7506500002DE9F05F4D
:10098000894604464FF0000ADFF874B1FB44C0F812
:1009900020A02046E1688847002874D0252806D08A
:1009A000D4E901219047206A401C2062F1E700262B
:1009B0005F462046E16888472028054607DB312D41
:1009C00005D2781910F8200C08B10643F1E7B007FA
:1009D00001D526F00406C4F81CA00027C4F818A00E
:1009E0002A2D09D0284605F01AFF38B304EB8708F2
:1009F000303DC8F8185019E059F8041B204604EBA4
:100A000087029161E1688847012F054618D1E069A6
:100A1000002820DA26F020061DE0D8F8180000EBA8
:100A2000800005EB40003038C8F818002046E16827
:100A30008847054605F0F3FE0028EED1012F0AD0C5
:100A40002E2D08D12046E16888477F1C0546022FDD
:100A500046F02006C4DBA069002803DA404246F0D5
:100A60000106A061F00701D026F010066C2D0BD016
:100A7000682D09D04C2D39D06A2D35D0742D35D044
:100A80007A2D33D016E038E0E1682F4620468847BB
:100A9000B842054609D16C2F26D04FF48060E1683A
:100AA000064320468847054604E06C2F1AD04FF4D1
:100AB000807006430DB3A5F14100192802D82035F6
:100AC00046F400664A462946204626604E46FFF711
:100AD000ABFB80B101280BD0F61D26F0070000F11A
:100AE000080956E74020E4E78020D8E70020D6E751
:100AF00006F104094DE7284652E7206ABDE8F09F59
:100B0000E06400002DE9FF4F1C4691464FF0FF3591
:100B100081B000218A468846D4E90167A16902981C
:100B20006D1C8847216A834688470028F6D1BBF1AF
:100B3000FF3F0CD0002F26F4C0661ADD700615D5D5
:100B4000BBF12B0F0AD0BBF12D0F0FD104E04FF0FA
:100B5000FF3005B0BDE8F08F46F48066A1690298C9
:100B60006D1C88477F1E8346002F02DDBBF1300FCE
:100B700003D0B9F1000F2AD025E0A1696D1C0298BD
:100B80007F1E46F400768847002F834605DDBBF1C3
:100B9000780F06D0BBF1580F03D0B9F1000F10D079
:100BA00011E0B9F1000F02D0B9F1100F0BD1A1691A
:100BB0006D1C02987F1E26F400768847834610201D
:100BC00000E0082081464FEAE970009017E00A2013
:100BD000F8E74346AAFB0928DDF800C07F1E03FBA7
:100BE000098046F4007605F101050AFB0C0112EBC1
:100BF0000B0A029841EBEB78A16988478346002FE6
:100C000006DD4946584600F06DFF5FEA000BE0D56F
:100C1000E16902988847B00502D46FF0010098E7B7
:100C2000F00718D1700610D55146700505D5002380
:100C3000D1EB030163EB080200E042462068031D8C
:100C400023600068C0E9001205E02068011D2160F2
:100C50000068C0E900A828467BE72DE9FF5F1D4634
:100C60004FF0FF3B91464FF000085F46D5E9014643
:100C7000A96901987F1C8847296A8246884700280D
:100C8000F6D1BAF1FF3F0CD0002E24F4C06419DD78
:100C9000600614D5BAF12B0F09D0BAF12D0F0ED181
:100CA00003E0584604B0BDE8F09F44F48064A969AD
:100CB00001987F1C8847761E8246002E02DDBAF11D
:100CC000300F03D0B9F1000F26D032E0A969761EAB
:100CD00001987F1C44F400748847002E824605DD8D
:100CE000BAF1780F06D0BAF1580F03D0B9F1000F5E
:100CF00010D01EE0B9F1000F02D0B9F1100F18D1D9
:100D0000A969761E01987F1C24F4007488478246E6
:100D1000102002E0082000E00A20814609E0A969CD
:100D200008FB0908761E01987F1C44F4007488476C
:100D30008246002E05DD4946504600F0D3FE0028CD
:100D4000EDDAE96901988847A00502D46FF0010047
:100D5000A8E7E00725D1600613D5600502D5C8F1E4
:100D6000000000E0404629680A1D2A600968220543
:100D700001D5087015E0220701D5088011E0086050
:100D80000FE02868011D29600068210502D580F860
:100D9000008006E0210702D5A0F8008001E0C0F83D
:100DA000008038467EE72DE9FF5F4FF00008994646
:100DB000144646469169D2E901A7DDF838B001989A
:100DC0008847054659EA0B0005D009E0A16901985A
:100DD000761C88470546216A284688470028F5D1B1
:100DE000681C03D05FEACA7005D015E04FF0FF30F1
:100DF00004B0BDE8F09F2068011D2160D0F800809C
:100E00000AE05FEACA7001D108F8015BA169761CAB
:100E100001987F1E88470546002F1ADD681C18D0F0
:100E2000B9F1000F0DD0E81705EBD060421120F0AA
:100E30001F0059F822102A1A012090400142E0D1E7
:100E400007E0BBF1000FDCD12846216A8847002863
:100E5000D7D0E16901988847BBF1000F07D1002E78
:100E600005DD5FEACA7002D1002188F80010A06891
:100E7000B84203DDBBF1000F03D017B16FF00100E2
:100E8000B6E73046B4E70000026811441378016009
:100E900018467047D1600549794451610449794445
:100EA000116200211161114600F02ABEEDFFFFFF23
:100EB0000D040000426842B1016811F8013B23B102
:100EC000521EC0E90012184670470121C160881EF9
:100ED000704742685AB1C368016843B983688B425E
:100EE00005D0491E521CC0E90012002070474FF087
:100EF000FF3070472DE9FF4F4FF000089A46144627
:100F0000C146464683B0D2E901B7CDF80080CDF89E
:100F10000480916904988847109905465AEA0100AF
:100F200005D009E0A1690498761C88470546216A26
:100F3000284688470028F5D1681C03D05FEACB70AB
:100F400005D02AE04FF0FF3007B0BDE8F08F2068F1
:100F5000011D2160D0F800801FE002A86A46E9B2B6
:100F600001F0B4FA411C07D0801C09D04FF00009F1
:100F70005FEACB7007D00AE0E169049888473EE059
:100F80004FF0010904E0BDF8081028F8021B7F1E8D
:100F9000A1690498761C88470546002F1ADD681C55
:100FA00018D0BAF1000F0DD0E81705EBD060421150
:100FB00020F01F005AF822102A1A01209040014206
:100FC000CBD107E010980028C7D12846216A88476E
:100FD0000028C2D0E16904988847B9F1000F0ED10A
:100FE000109830B9002E04DD5FEACB7001D1A8F86B
:100FF0000000A068B84202DD109818B117B16FF078
:101000000100A1E730469FE72DE9FF4F4FF00008B0
:101010009B461446454683B0D2E90196CDF8008040
:10102000CDF804809169DDF848A004988847074608
:101030005BEA0A0005D009E0A16904986D1C8847A5
:101040000746216A384688470028F5D1781C03D026
:101050005FEAC97005D01BE04FF0FF3007B0BDE874
:10106000F08F2068011D2160D0F8008010E05FEA59
:10107000C97007D16A464046B9B201F047FA411C2F
:1010800031D08044A1696D1C0498761E88470746BC
:10109000002E14DD781C12D0BBF1000007D03B46B7
:1010A000DDE9101201F062F90028E0D107E0BAF1A1
:1010B000000FDCD13846216A88470028D7D0E16983
:1010C00004988847BAF1000F06D1002D04DD5FEACD
:1010D000C97001D188F80000A068B04203DDBAF100
:1010E000000F03D016B16FF00100B7E72846B5E74F
:1010F0002DE9FF5F9B46144600273D469169D2E9E2
:101100000196DDF840A00198884780465BEA0A0016
:1011100005D009E0A16901986D1C88478046216AC5
:10112000404688470028F5D1B8F1FF3F03D05FEA79
:10113000C97005D014E04FF0FF3004B0BDE8F09F57
:101140002068011D216007680AE05FEAC97001D1CB
:1011500027F8028BA1696D1C0198761E884780468E
:10116000002E15DDB8F1FF3F12D0BBF1000007D013
:101170004346DDE90E1201F0F9F80028E5D107E059
:10118000BAF1000FE1D14046216A88470028DCD03F
:10119000E16901988847BAF1000F05D1002D03DD00
:1011A0005FEAC97000D13880A068B04203DDBAF1AF
:1011B000000F03D016B16FF00100BEE72846BCE770
:1011C00010B5203AC0F00B80B1E81850A0E81850D4
:1011D000B1E81850A0E81850203ABFF4F5AF5FEA24
:1011E000027C24BFB1E81850A0E8185044BF18C9C9
:1011F00018C0BDE810405FEA827C24BF51F8043B70
:1012000040F8043B08BF7047D20728BF31F8023BC3
:1012100048BF11F8012B28BF20F8023B48BF00F857
:10122000012B704730B5B0F10A0271F100034FEAAB
:10123000900E4EEA817EB0EB0E0061EB91014FEA19
:10124000101E4EEA017E10EB0E0041EB11114FEA29
:10125000102E4EEA016E10EB0E0041EB11214FEA09
:10126000104E4EEA014E10EB0E0041EB11414018BA
:1012700041F100014FEAD00040EA41704FEAD1014C
:101280004FEA810444EA907410EB800544EB0104BA
:101290006D1944EB0404521BA3414FF0000348BFF7
:1012A0000A3200D530BD401C41F1000130BD10B5FF
:1012B000044601F075F90068005D00F0010010BD02
:1012C0002DE9F0470D4699469246044600F1240860
:1012D0000168880604D5E06921F01001216000E072
:1012E0000120A84201DD471B00E00027A1697A190F
:1012F00002EB0900081AA0612078C00602D420463B
:10130000FFF73BF9002608E0D4E901211AF80600AE
:101310009047206A401C761C20624E45F4DB207802
:10132000C0060AD52046FFF728F906E0D4E90121D6
:1013300030209047206A401C2062381EA7F1010728
:10134000F4DC07E0D4E9012118F805009047206A91
:10135000401C2062281EA5F10105F3DC2046FFF7A2
:1013600022F92078000602D50220BDE8F08701208E
:10137000FBE72DE9FF4F0C461E464FF0FF378BB0C1
:10138000D2E90001DDF860800A908A46C1F30A556F
:1013900005B93D46002108464FF00000BAF1000FA4
:1013A00000F4400005DA00EB80004FF4400101EA50
:1013B00050004FEA9059B9F1010F00DDB9460A9883
:1013C00050EA4A000ED044F61050A5F2FF354543CE
:1013D0002F14B8F1000F1ED07542291E1EDDC9F171
:1013E00000021CE0B8F1010F4FF0000001D03021E5
:1013F00003E0F24305E02154401CB042FBDB3046E1
:101400000022002121540B99C1F80880C1E9002075
:101410000FB0BDE8F08FBD1B6D1CDEE74A4600DA59
:10142000694206A801F046F906AB93E8070003AB52
:1014300083E8070050460A9904F08DFC8DE8070008
:10144000A0F500501F3800900398002D0ADD42F2ED
:101450001F014A460844002303A90390684604F08C
:1014600039FF09E0A0F500504A461F38002303A9C0
:101470000390684604F058FF8DE807000004000C54
:1014800003D04FF0FF30410800E01046B8F1000FE4
:1014900003D00022009215461EE0751E05D4FFF70A
:1014A000C1FE303262556D1EF9D5B34601220843A4
:1014B00002D000227F1C04E02078302801D10022D5
:1014C0007F1E002A099784D01DE0112D07DAFFF74F
:1014D000A9FE303262556D1C50EA0102F5D1084375
:1014E00002D00098C8B10EE00021681E05E0235C20
:1014F000625C63542254401E491C8142F7DBAB46B8
:10150000A81B401E0990002004F80B000B98099AB4
:10151000C0F80880C0E9002B7AE711264FF00008D8
:1015200057E72DE9F04F88460446D21D22F0070107
:1015300091B0D1E90001CDE90A0105F041F8024678
:101540000B98C00F01D02D2007E02068810701D53E
:101550002B2002E0202101EAC000032A099001D0DB
:10156000072A05DB03464146204601F063F80BE1FC
:101570002078800601D5E06900E00620B8F1650F0B
:10158000814606D0B8F1660F18D0B8F1670F70D158
:1015900031E00020B9F1110F009001DB112301E0CF
:1015A00009F101030AAA01A90CA8FFF7E2FEDDE98F
:1015B0000C70002609F10105834647E001204B46E7
:1015C00000904FF000470AAA01A90CA8FFF7D1FE2E
:1015D000DDE90DB00C995D46002610B909F1010056
:1015E0000D18B9EB050003D4C0F1FF3609F1010570
:1015F000A5EB09002BE0B9F1010F01DA4FF0010969
:101600000020B9F1110F0090484601DD112300E0E0
:1016100003460AAA01A90CA8FFF7ABFEDDE90C708E
:101620004D4600268346207800070AD4AB4500DAF1
:101630005D4601A8012D04DD411911F8011C302976
:1016400007D04F4502DA17F1040F04DA0120824671
:101650000FE06D1EEEE7002F02DCED1B3E4403E0C1
:10166000781CA84200DD7D1CB81B00F1010A4FF078
:1016700000472078000703D4AA4501DB4FF0FF3A6A
:101680000021B7F1004F0DF143088DF8431024D02D
:1016900002202B23002F01DA7F422D230A21021E74
:1016A000A0F1010000DC5FB197FBF1FC97FBF1F2C8
:1016B00001FB1C7C17460CF1300C08F801CDEEE75D
:1016C000A8F1010003702188090501D5452100E03A
:1016D0006521A0F1010800F8011C09980FA9A1EBF0
:1016E0000807FF1D00B10120411901EBEA70A16953
:1016F0003844081A401EA0612078C00602D4204653
:10170000FEF73BFF099828B1D4E901219047206AF0
:10171000401C20622078C00622D52046FEF72DFF0F
:101720001EE0002E04DBB34502DD01A8805D00E071
:101730003020D4E901219047206A401C2062761CA9
:10174000AAF101005FEA000A0AD100F031FFC06887
:101750000168405CD4E901219047206A401C206266
:10176000281EA5F10105DCDC07E0D4E9012118F809
:10177000010B9047206A401C2062381EA7F1010728
:10178000F3DC2046FEF70FFF032011B041E6000016
:101790002DE9F04F04460D46D21D22F0070089B016
:1017A000D0E900974846394604F00AFF0246F80F90
:1017B00001D02D2307E02068810701D52B2302E00B
:1017C000202101EAC0038DF820300BB1012000E098
:1017D0000020032A824601D0072A04DB294620463E
:1017E00000F028FF3FE12078800601D40D2500E0BD
:1017F000E569C7F30A560D2D49DA00214FEA175B58
:1018000008464FF00000002F00F4400007DA00EB1C
:1018100080004FF4400100EBD07001EA60008115B8
:10182000012901DD4FF0FF3100224FEA850CBCF1A8
:10183000180F06D31346ACF118004FF08052C24087
:1018400003E04FF4801323FA0CF30CF10C0CBCF101
:10185000200F04D3ACF1200C09FA0CF001E007FAD8
:101860000CF000294FF0004801DD18B90FE00ED14F
:1018700040450CD319EB02095F4121B9404502D123
:101880009F4329EA0209BBEB175F00D0761C208832
:10189000000502D57B48784402E07A48784419383C
:1018A00008AA302302F80A30037C0AF10101002E55
:1018B0000AF1020A53546A4602DC4FF0300101E09B
:1018C0004FF031014FF001088DF8001002D0A6F260
:1018D000FF3603E059EA470100D06B4E002D02DCD1
:1018E0002178090704D54FF002082E218DF8011048
:1018F000C44600210BE0C7F303433F01C35C491C0E
:101900006D1E02F80830052908F1010801DA002DE2
:10191000F1DC00210CE000EB1973491C1B786D1EF3
:10192000082902F808304FEA091908F1010801DA1C
:10193000002DF0DC21688B0602D516E0A8F1010825
:10194000E04505DD02EB080313F8013C302BF5D030
:10195000B8F1000F09DD02EB080313F8013C2E2B50
:1019600003D1090701D4A8F10108002D05DD3E21AE
:1019700002F808106D1E08F10108407C002E02F8E4
:10198000080008F1010804DA2D20764202F8080068
:1019900002E02B2002F808000A214FF47A708642F8
:1019A00008F101080BDB96FBF0F3303302F8083046
:1019B00096FBF0F308F1010800FB136601E0642ECA
:1019C0000CDB642096FBF0F3303302F8083096FB12
:1019D000F0F308F1010800FB136601E00A2E06DBB4
:1019E00096FBF1F0303002F8080008F1010896FB90
:1019F000F1F001FB1060303002F80800A16908F135
:101A0000010808EB050202EB0A00081AA061207821
:101A1000C00602D42046FEF7B0FD216A08AE01EBF5
:101A20000A00206204E0D4E9012116F8010B904776
:101A3000BAF1010AF7D22078C00602D52046FEF797
:101A40009CFD6E4609E016F8010B3E280FD0D4E944
:101A500001219047206A401C2062B8F10108F2D2AF
:101A60002046FEF7A0FD09B00320BDE8F08F206AF4
:101A70002844206203E0D4E90121302090476D1E04
:101A8000EBD3F8E7FA55000002FCFFFF10B54369FD
:101A900013B1AFF3008001E0FEF7A8FD012010BDF7
:101AA000127800F124010A7000224A700122EDE749
:101AB00011684FF0FF32E9E710B5436913B1AFF396
:101AC000008001E0FEF73CFE012010BD128800F10D
:101AD000240182840022C2840122EDE711684FF0C4
:101AE000FF32E9E73A2800D2303820F02002412ABC
:101AF00001D3A2F13700884201D34FF0FF30704785
:101B00002DE9F34F4FF0000A0C4656468DB00120E8
:101B10000C9001F10C000B9062690B980121904729
:101B2000051E2DD0252D2CD0216A8847C0B16269B1
:101B30000B9801219047216A88470028F7D16269F4
:101B4000411E0B98904700E0761CA1690D988847CC
:101B5000216A88470028F7D1E1690D988847DBE7BB
:101B6000A1690D988847A842074601D1761CD3E7A2
:101B7000E1690D9888477F1C02D1BAF1000F6FD040
:101B80006BE162690B9800273D46394690472A2849
:101B900004D162690B98012190470125DFF8D082BA
:101BA00062690B9801219047A0F130010A290AD2FD
:101BB0004745E5DC07EB870100EB4107303FDFD409
:101BC00045F01005ECE7E90601D46FF000476C28FA
:101BD0000AD04C2814D0682815D06A280DD0742853
:101BE0001CD07A281AD01DE062690B980121904719
:101BF0006C2802D045F0040514E045F002050DE024
:101C000045F020050AE062690B9801219047682899
:101C100002D045F0080505E045F4006562690B98BF
:101C200001219047C4E9015765283DD019DC5828A7
:101C30007AD00CDC452837D004DC252826D0412872
:101C40009ED131E046282FD0472899D12CE05B283F
:101C500077D0612828D063287CD0642823D15AE02B
:101C6000F6E06F2848D008DC66281DD067281BD016
:101C7000692821D06E2816D127E0702845D0732816
:101C800068D0752847D078280DD14DE0A1690D980E
:101C90008847252805463FF469AFE1690D988847D4
:101CA0006D1C3FF46AAFD8E00D9923466A466FF089
:101CB000010005F0A6F8C5E045F0400023464FF0CE
:101CC00000026060A80736D43EE0E8077FF447AF23
:101CD0002068011D21600068290501D506701BE7F9
:101CE000290701D5068017E7A90703D5F117C0E931
:101CF000006111E706600FE745F0400023464FF012
:101D000008026060A80716D41EE040F60E0125EA1E
:101D10000100606016E045F0400023464FF00A02E3
:101D20006060A80707D40FE045F040006060A80796
:101D300008D5234610220D996FF00100FEF7E2FE50
:101D400080E007E0102223460D996FF00100FEF7B6
:101D500084FF77E04FF0000963284F46C8464B46A2
:101D6000CB4602D05B2806D038E0E80601D401203B
:101D7000A060012732E06269D4F80CB00B98012111
:101D800090475E2807D14FF0010949466269D4F8AF
:101D90000CB00B989047216939B900210A4603AB72
:101DA00043F82120491C0829FADBD8B3216949B33B
:101DB00008F1010862690B98012190475D28F4D170
:101DC000B9F1000F09D0002003A951F82020D24317
:101DD00041F82020401C0828F7DB03AB20690028CD
:101DE00020794FEA40701ED05B462246CDF8008035
:101DF000CDE901970D9900286FF0010020DAFFF777
:101E000077F91FE0C11703AA00EBD1614B1121F054
:101E10001F0102EB8302411A13680120884003432B
:101E20001360C7E719E00D99224600286FF0010002
:101E3000009702DAFFF75EF804E0FEF7B4FF01E076
:101E4000FFF7E2F800280ADA401C06D10C9820B10E
:101E50004FF0FF300FB0BDE8F08F5046FAE7E907CA
:101E600001D10AF1010A064400200C9054E600005A
:101E7000CCCCCC0C2DE9FF4F06468BB00878FF2860
:101E800006D0491C2D2805D000244FF0000908E099
:101E900000200CE00124F8E709EB8903491C00EB62
:101EA00043090878FF28F7D114B1C9F10000814631
:101EB000107800252C46AA4629462D2801D02B282B
:101EC00004D1521C2D2813D0002082468B46107856
:101ED000FF280FD04FF0000C0A21521CA5FB0178FF
:101EE00004FB018105FB0C11C5194BEB0104EEE766
:101EF0000120EAE7002108464FF00000BAF1000F88
:101F000002D000EB80004008C0F38157012F01DDB3
:101F10004FF0FF370E9955EA040009EB01080BD08A
:101F20004FF0020918F5FA7F16DA4FEACA70002F4F
:101F3000706008DD012007E04FEACA70C6E900B012
:101F40000FB0BDE8F08F0020306000F035FBC0F826
:101F500000901821084616E0B8F5FA7F18DD002F2A
:101F600002DAF748784401E0F6487844D0E90010F6
:101F7000C6E9001040EACA70706000F01DFBC0F8AE
:101F80000090142108460FB0BDE8F04F04F0D2BE17
:101F9000002108464FF00000B8F10001099002DA74
:101FA000C7F1000200E03A4601DAC8F1000106A8D4
:101FB00000F080FB06AB93E8070003AB83E8070063
:101FC00044F23E005BEA04010090584604D144F21A
:101FD0001E012C465D460091210C0904014306D1E7
:101FE0000099240444EA15442D041039009104F0AA
:101FF0007F41014306D10099240244EA15642D0271
:102000000839009104F07041014306D10099240180
:1020100044EA15742D01091F009104F04041014369
:1020200006D10099A40044EA9574AD00891E009180
:1020300004F00041084304D100986D196441401E2A
:1020400000904FF001033A466846B8F1000FCDE921
:10205000014503A902DD04F07CF901E004F04FF929
:10206000BAF1000F04460D4601D084F0004400216F
:1020700008464FF00000099940F2FF77484010F001
:102080000C0F07D124F00040284303D0C4F30A50BA
:10209000B84212D100F090FAC0F80090C4F30A5090
:1020A000B8420AD1A8487844D0E90010C6E9001027
:1020B00004F000410843706042E7C6E900543FE77E
:1020C0002DE9FF4F1F464FF0000A4FF0FF384546FD
:1020D00091B0D7E90146CDF83CA000F069FAC0689C
:1020E0000168405C1090B96912986D1C8847396A84
:1020F000814688470028F6D1B9F1FF3F0AD0002E6B
:1021000024F4D06411DDB9F12B0F08D0B9F12D0FF3
:102110000BD102E0404615B013E744F48064B9697E
:1021200012986D1C8847761E8146600504A901D56A
:102130002D2000E02B20002E01F1010B0DF13008C5
:102140008DF810003FDDB9F1690F08D0B9F1490FE2
:1021500005D0B9F16E0F02D0B9F14E0F1CD13B463C
:1021600001A8009580E85002DDE912126FF002002C
:1021700004F04BFEC11CCED10EE0B96912986D1C63
:10218000884781461398761E44F4007405600F98C2
:10219000401C002E0F9016DDB9F1300FEDD0B9F1D3
:1021A000780F02D0B9F1580F0DD10F9801280AD13C
:1021B0003B46CDE90054DDE91212001F029604F0FF
:1021C00022FEC11CA7D1109989453ED144F080045C
:1021D00006E01399681CAAF1010A44F4007408602F
:1021E000B9696D1C1298761E884730288146F0D058
:1021F0002BE01099894505D1200603D4761E44F0C2
:10220000800418E0484604F00AFB08B3761E0DF17E
:1022100023029345A9F1300044F4007406D20BF870
:10222000010B200607D5AAF1010003E0200602D425
:102230000AF101008246A00502D51399681C0860C6
:10224000B96912986D1C88478146002ED1DC53E095
:10225000002E51DDB9F1650F02D0B9F1450F4BD118
:10226000A00549D5B9696D1C1298761E24F44074F6
:102270008847002E81460CDD2B2804D0B9F12D0FA4
:1022800007D144F48074B96912986D1C8847761E92
:102290008146E00501D52D2100E02B2108F8011B26
:1022A000CDF8008021E0761E0DF13901884544F417
:1022B00000740CD2A9F1300010F0FF0088F8000083
:1022C00002D10099884509D908F1010806E0E00526
:1022D00001D51E4801E042F20F708246B96912989A
:1022E0006D1C8847814613980560002E04DD484622
:1022F00004F095FA0028D6D1F96912988847FF2092
:1023000053468BF8000088F8000000200A900B90DC
:1023100004AA0CA90AA8FFF7ADFDA00502D46FF02E
:102320000100F8E614F0240F12D0E0071CD1386841
:10233000DDE90A12031D3B600068C0E9001213E0EA
:102340001051000002510000C64F0000F1D8FFFFFD
:102350000AA9684604F050FAE00705D13868009AE7
:10236000011D3960006802602846D4E610B508E017
:1023700030F8024B9C4204D10AB1002010BD01206C
:1023800010BD491EF4D2104610BD007B00F0800045
:102390007047000010B54248542100F0BFFB41488F
:1023A000542100F0BBFB4048542100F0B7FB3F49EB
:1023B0003B483C4A3F4B08603D490A603A49196036
:1023C000531C0365481C1065012008653B48344ACE
:1023D00039A1784400F0F4FA20B9384878440A3832
:1023E00000F095FB37482F4A35A1784400F0E8FA11
:1023F00020B9344878440A3800F089FB32482A4A28
:102400002FA1784400F0DCFA20B92F4878440A382C
:1024100000F07DFB40232248DC000021224600F032
:10242000ACFA20B125487844543800F070FB1D48C0
:1024300022464023002100F0A0FA20B12148784430
:10244000543800F064FB184822461023002100F0A5
:1024500094FA002806D01C487844BDE8104056384D
:1024600000F055BB10BD104870B5006D20F00104A0
:102470000B4800F01DFB0B4800F01AFB0A4800F067
:1024800017FB09E0206D20F00105204600F010FB4D
:10249000204600F095F82C46002CF3D170BD0000CA
:1024A000180000206C000020C00000200000002068
:1024B0000400002008000020720000008D4B000086
:1024C000770000007C4B0000554B0000F8B5164625
:1024D0000C46054600F064F8036893F801010128F2
:1024E00004D0185D78B101202C80F8BDD3F8030129
:1024F0003246214603F20313C71868460023B84743
:1025000000992980F8BD4FF0FF30F8BD2DE9F0416A
:1025100016460C46054600F043F8036893F801019F
:10252000012807D0FF2C12D8185D80B101202C7033
:10253000BDE8F081D3F807013246214603F20713C4
:10254000C7182846BC46BDE8F041002360474FF05D
:10255000FF30EDE7754600F009FBAE460500694621
:10256000534620F00700854618B020B5FDF7DEFE83
:10257000BDE820404FF000064FF000074FF0000884
:102580004FF0000BAC46ACE8C009ACE8C009ACE8C1
:10259000C009ACE8C00921F007018D467047000072
:1025A00010B500F005F8001D10BD00BF5543000038
:1025B0000048704734010020004870471401002093
:1025C00070B50446051F00F0D5FA0068002C14BF52
:1025D000446870BD002C18BFAC423CBF2046646804
:1025E000F8D301680A18AA4218BF456003D12A68C7
:1025F00005461144016028684119A1421CBF6C6066
:1026000070BD6168696021680844286070BDB2F1DE
:1026100020030AD5C2F1200301FA02F120FA03F3E4
:1026200041EA030100FA02F0704700FA03F14FF0AB
:10263000000070472DE9F0411F460446032601685B
:10264000072A01F4006004DB08B116A505E016A511
:1026500003E008B115A500E015A521F010002060E9
:10266000A069C01EA0610FB1401EA0612046FDF709
:1026700084FF4FB1D4E9012138469047206A401CBD
:102680002062C01C206206E0206AFAE7D4E901213A
:1026900015F8010B9047761EF8D22046FDF783FF10
:1026A000BDE8F0814E414E006E616E00494E46001D
:1026B000696E66002DE9F047814616468AB03548B6
:1026C00078440DC88DE80D0032487844801C03AC76
:1026D0000DC884E80D0041F69B300844372190FB7B
:1026E000F1F290FBF1F5A5F1800501FB12041B3C12
:1026F00002D56442012000E00020DFF898A0804667
:102700000027FA44AAF1BE0A0EE0E0070AD03246DA
:10271000684607EB470101230AEB810103F004FE41
:102720008DE8070064107F1C002CEED1194F7F4408
:10273000AE3F19E0E80715D007EB04100DF1180AB9
:1027400090E80E008AE80E00C068F04201D19819A6
:1027500008903246012306A903A803F0E5FD03AB68
:1027600083E807006D10641C002DE3D14FF00103D6
:1027700032466946B8F1000F03A802D003F0AAFD63
:1027800001E003F0D1FDC9E90001C9F808200AB051
:10279000BDE8F087604800002DE9F05F0546174668
:1027A0000C46C86820F4201040F48000C860800601
:1027B00002D5084600F06DFDE06841F282014FF05D
:1027C000FF3A0140022903D0204600F0FFFCB9E0A7
:1027D00000F42041B1F5004F0FD1C00306D5616868
:1027E000E06A884200D80846606006E02069E0623E
:1027F0006060606902F0A8FFA061A0680022EEB2EC
:1028000000280DDAE1688B050AD4C043A06041F4CA
:1028100090302260E0606068411C61600670AAE050
:10282000E0689146226040F40050E060206978BB87
:10283000606902F0ADFF04F124054FF00108A8B172
:10284000A08910F4407F08D0E06900F0DEF9206133
:1028500018B1E06840F4006017E0C4F81C802561FE
:10286000E06820F4407040F480600EE0E06900F021
:10287000CCF900282061F0D0E06840F4006010F44A
:10288000407FE06002D140F48070E06020696060C9
:10289000E06825696FF0010BC1051ED56168E06A2B
:1028A000884200D80846411B04D02246284600F042
:1028B00097FCE8BB1FB1E562C4E9015959E0681C07
:1028C000E0626060E069401EA060E06840F4803033
:1028D000E06030462E70BDE8F09F17B100F4803202
:1028E0000AE06068411C61600670E0680A2E40F4EE
:1028F0008030E06006D00022E16A6068814203D93E
:102900000B4602E00122F7E70346B4F80CC05B1B5C
:102910005FEA4C5C04D4D4F81CC09C4500DD02B3D3
:10292000814200D80146002BA1EB0008E56200E0DF
:1029300008E0C4E9015907DD22461946284600F09F
:102940004FFC08B15046C6E7B8F1000F09D0A169A5
:10295000E5626560A1EB0800A061E06840F010004E
:10296000E06047B16168A069E562491B08446560A1
:10297000A0615846AFE73046ADE770B5C468A5071B
:1029800013D0650211D4B2F5807F09D0B2F5007F73
:1029900006D0B2F5806F08D1012300F1240106E0D2
:1029A0005D1E6FF07F46B54201D3012070BD01610D
:1029B000C361416024F470611143C160002070BDA7
:1029C0002DE9F0410C461646070047D0104600F0AE
:1029D0006FF82078611C61280AD0722802D077280D
:1029E0003CD102E00125002405E00225042402E098
:1029F000082448F2020511F8010B2B2806D06228A2
:102A000009D011F8010C74280AD00BE045F0030539
:102A100044F00204EFE745F0040544F00104EAE75E
:102A200044F010043846214602F0D6FE411C15D071
:102A30000021316171604FF40071F560F1617061E6
:102A4000200704D530460222002100F043FB306D00
:102A500040F0010030653046BDE8F0810020FBE722
:102A60002DE9F0410D460646104C206DC10704D0FB
:102A7000410804D020F00104F7E722460EE054207C
:102A800000F0C3F807000ED0206D47F001010843A5
:102A900054212065384600F041F83A462946304630
:102AA000BDE8F0418CE70020D6E7000018000020C8
:102AB0002DE9F04704464FF0FF380026C568D4E9F9
:102AC0000497A80718D0204600F0C0FB384602F053
:102AD00015FE002800DA4646280502D54846FFF7CD
:102AE0006FFD4C21204600F019F8206D20F0010008
:102AF00020653046BDE8F0874046FBE710B5044648
:102B0000AFF300802046BDE81040FDF7FABB10B5DA
:102B100000F0E6FBBDE8104000F0DCBB4FF0000227
:102B200000B5134694469646203922BFA0E80C50C3
:102B3000A0E80C50B1F12001BFF4F7AF090728BF9E
:102B4000A0E80C5048BF0CC05DF804EB890028BF1A
:102B500040F8042B08BF704748BF20F8022B11F043
:102B6000804F18BF00F8012B7047000000487047E5
:102B700014010020004870471C0100207047704776
:102B80007047704738B504460A4600206946AFF3DF
:102B90000080002808BF38BD02460099204600F09A
:102BA000C5FB012038BD012000F014BCF8B5AFF31F
:102BB0000080054600200C460C2000BF0646A819E0
:102BC000A0420DD9324669460020AFF300800700CD
:102BD00008BF00F0FFFB0098A04218BF0546C419CB
:102BE000FFF7C8FF05600746F01D20F007004619F3
:102BF000284600F095FBB44208BFF8BDA21B314641
:102C00003868BDE8F84000F091BB70B50646FFF7A4
:102C1000B1FF056806F10B0020F00704B4429CBF29
:102C2000002070BD2B466A68BAB11068A04210D36C
:102C300004F1080188423CBF5068586007D35168CE
:102C4000101941601168091B016058601460101D63
:102C500070BD13465268002AE7D121462846FFF787
:102C600091FF0028DED170BD10B5FFF7A5FC00680C
:102C700010BD10B50446FFF79FFC046010BD0000B6
:102C80002DE9FF4F1F464FF03C0987B04FF000423F
:102C9000DDE9141001F10108DDF858A002EA405006
:102CA0000390002005908346054604460490B969C8
:102CB000461E08988847AAF1010A0290BAF1000F4F
:102CC0003BDD02982E2815D01021FEF70BFF0028BF
:102CD0002EDB4FF0010B0599014317D0B9F1000F1E
:102CE0000BDB4A46C117FFF792FC05430C43A9F1E1
:102CF000040905E0012004900BE008B145F001054E
:102D000001200590049820B9361D02E0049800B116
:102D1000361FB969089808F101088847BBF1000F10
:102D2000AAF1010A0290C9D00999C1F80080C5E74B
:102D30000298702808D0502806D0F969089888476A
:102D4000BBF1000F14D04FE0002002900120BBF136
:102D5000000F049009D0B969089808F10108884764
:102D6000AAF10109B9F1000F07DCF9690898884751
:102D70006FF001000BB0BDE8F08F2B2804D02D2898
:102D80000CD14FF0FF300490B969089808F10108A0
:102D90008847A9F10109B9F1000FE6DD411CE4D033
:102DA0000A21FEF79FFE0028DFDB029908F10108E7
:102DB00001EB810100EB41000290B9690898884756
:102DC0000A21FEF78FFE099AA9F10109B9F1000F56
:102DD000C2F8008001DD0028E7DAF9690898884721
:102DE0000499029800FB016655EA040004D004F03F
:102DF0004041090002D006E0039898E0A40044EAAC
:102E00009574AD00B61E04F00041080002D16D19A2
:102E10006441761E159810F0240F03D04FF00B0973
:102E20005C4803E04FF028096FF07D00824656456C
:102E300007DAAAEB06018944B9F1410F01DD4FF031
:102E4000410901200021A9F10102FFF7E0FB024640
:102E500028400B462140084301D0012100E0002119
:102E6000501E029143F1FF3128402140084301D018
:102E7000012000E000200299834651EA0B014FD067
:102E8000002108464FF00000039900F4400039B1DA
:102E900000EB80004FF4400100EBD07001EA6000CD
:102EA0008015012802DD4FF0FF3000E013D0401CF8
:102EB00036D0029860B3BBF1000F0CD14A46012016
:102EC0000021FFF7A4FB28402140084301D0012046
:102ED00000E00020E0B101204A460021FFF797FB07
:102EE000034640190A4661412D1A8C4111D3B9F1AC
:102EF000400F09DD159810F0240F02D0AAF1340616
:102F000003E0AAF1170600E0761C00254FF000440C
:102F100006E05B1E42F1FF3220EA030521EA0204CB
:102F2000CAF10100B04206DA1B4903980843019038
:102F3000002000900EE0039AC4F3D321E80A0A436C
:102F4000164940EA44500A433146CDE9000268463A
:102F500003F05BFC159810F0240F0BD01598C007F8
:102F600015D13868DDE90012031D3B600068C0E937
:102F700000120CE002A8694603F03EFC1598C00759
:102F800005D13868029A011D396000680260404628
:102F9000F0E6000002FCFFFF0000F07F0000F03FC1
:102FA0002DE9FF4F92461D4685B04FF00041DDE907
:102FB000124BDDE914727F1E01EA4B50414940F08B
:102FC000FF4940EA0108002122F02000492804912D
:102FD00002D04E2828D04CE03BA0012607C88DE83F
:102FE0000700A9690698641C88477F1E014606D41D
:102FF0001DF8060018B121F0200181420BD0E969CB
:1030000006988847032E34D0082E32D06FF0010086
:1030100009B0BDE8F08F761C032E01D0082EE0D158
:10302000601CCAF80000DCE7A9690698641C8847A0
:103030007F1E2AD420F02000412826D1A9690698B5
:10304000641C88477F1E20D420F020004E281CD10D
:10305000A9690698641C88477F1E48F4002849F433
:103060008009CAF8004001D4282806D0E9690698EA
:1030700088475FEACB7012D022E0A9690698641CE9
:1030800088477F1E01D4002803DAE969069888473B
:10309000BCE72928F1D1641CCAF80040E9E71BF01D
:1030A000240F07D028680499031D2B600068C0E92D
:1030B000001805E02868021D2A600068C0F800902A
:1030C0002046A5E70000F07F494E46494E49545935
:1030D000000000002DE9F041044616460D46476900
:1030E000007B80072ED0384602F052FB50BB3EB327
:1030F000012E02D0022E25D104E0204600F030F946
:1031000005441DE0384602F01FFBE168002841F04D
:103110001001E16005DA204600F058F80120BDE812
:10312000F081C9030BD56268E16A914200D811466B
:10313000A26911442269891A814200DD08460544CA
:10314000002D01DA0220EAE7E16A6068E268814264
:1031500006D29103E06203D522F4003141F010025F
:10316000A6690027AE4213DCE16A814201D90B4611
:1031700000E0034603EB060C2369ACEB030CAC4503
:1031800006DD814201D98C4600E084469C4505D18C
:10319000A760276042F02000A5620DE0AD1BE66944
:1031A000AE1B8142A66000D90846C01A281A2060CA
:1031B0005819606022F0200003490840E0600020B8
:1031C00084F84870ABE70000BFCFD7FFC16821F497
:1031D000001141F08001C1600021816001607047F1
:1031E0002DE9F74F15460C464FF0FF3B3848D7689E
:1031F000D2F814A0074209D05046A96902F02EFB6C
:10320000002819DB3248C0430740EF604FF0004907
:103210006FF000484C4501D3464600E02646009931
:103220003B465046324602F043FBA96920F000427B
:10323000B21A1144A96128B12846FFF7C7FF5846C2
:10324000BDE8FE8FA41BE5D10020F9E770B5044668
:103250000569C06A6168884200D80846E16821F4BF
:103260002011E160C90312D5A84208D02246411BB3
:103270002846FFF7B5FF10B14FF0FF3070BD0020BA
:10328000E562C4E90150E06820F48030E06000208D
:1032900070BD10B50446C06820F02000E060A16A4F
:1032A000A06988420DD02046FFF7D0FFE06820F4E7
:1032B000405040F01000E060A06AA0612069E06228
:1032C000606044F24001E0688843E06010BD0000A7
:1032D00010000200002801D000F01CB87047000068
:1032E00010B5014602A000F05CF8012010BD0000FE
:1032F00053494752545245443A20526564697265B5
:1033000063743A2063616E2774206F70656E3A2093
:103310000000000001491820ABBEFEE726000200B5
:1033200000210160416070470C20704703464068EF
:103330008C46002818BF88423CBF03464068F8D33B
:1033400018681844884207D00CF1030020F00700E9
:10335000001D411A521A0146081D0A60FFF730B9D4
:1033600010B50146C268900703D0900607D5886A59
:103370000AE0FFF721F901210160881E10BD8B6969
:10338000486818440B69C01A91F848301BB191F88D
:103390004910401A10BD1103FCD50028FADD401E6B
:1033A00010BD70B505460C460A2000E06D1C00F00B
:1033B00018F835B128780028F8D102E0641C00F034
:1033C00010F814B120780028F8D1BDE870400A2028
:1033D00000F007B810B500F00DF8BDE81040FFF799
:1033E00079BF08B569468DF800000320ABBE08BD63
:1033F0007047000010B5012805D0002103A0FFF799
:10340000D0FF012010BD09A1F8E700005349475241
:10341000544D454D3A204F7574206F6620686561A4
:1034200070206D656D6F7279000000003A2048656C
:103430006170206D656D6F727920636F7272757047
:103440007465640080B582B00020C4F202000721D8
:1034500000F0BCFB90B1FFE70020C4F2020000F0D6
:103460009BFB58B1FFE70020C4F20200019000F07E
:10347000CBFA0198072100F023FBFFE702B080BDE3
:1034800083B001900091019940F27410C2F20000E3
:1034900050F83100022812D1FFE7019840F2741170
:1034A000C2F2000101EBC0004068009A1060019A6E
:1034B000002041F8320001208DF80B0003E00020CD
:1034C0008DF80B00FFE79DF80B0003B0704700007C
:1034D00081B08DF803009DF8031040F2F460C2F251
:1034E000000050F8210001B07047000080B584B0A2
:1034F00045F20040C4F2000000F034FEA8B1FFE73E
:1035000040F2F020C2F20000039090F8FF10415CFE
:1035100045F20040C4F2000000F03CFE039991F82F
:10352000FF00013081F8FF008CE045F20040C4F25A
:10353000000000F0FFFD98B1FFE745F20040C4F243
:10354000000000F017FE40F2F021C2F2000191F8F5
:10355000FF20885491F8FF00013081F8FF0070E0EF
:1035600045F20040C4F2000000F0F4FD60B3FFE754
:1035700040F2F020C2F20000002280F8FF2040F26A
:10358000D421C2F200010B680E2101EAD311A0314F
:1035900090F80031EC4642F20040C8F20000CCF84E
:1035A00004004FF00070CCF8000045F20040C4F277
:1035B000000000F095FD00BF00BF00BF00BF00BFCE
:1035C00000BF00BF00BF3BE045F20040C4F2000076
:1035D00000F0B8FD98B3FFE745F20040C4F20000E8
:1035E00000F042FD40F2F021C2F2000191F8FF002C
:1035F00091F80011884207D0FFE746F6D570C0F673
:103600000000FCF7A5FE1DE040F2E220C2F200003F
:10361000007802280CD1FFE740F2F020C2F200004F
:1036200090F8000140F2E821C2F200010870FFE7C3
:1036300040F2E221C2F2000103200870FFE7FFE739
:10364000FFE7FFE704B080BD81B0009040F68060E6
:10365000CEF200000068C007A0B1FFE740F60060AE
:10366000CEF200000068C00760B1FFE7FFE74FF04F
:103670006040006808B9FFE7F9E700984FF0604143
:103680000870FFE7009801B07047000080B588B06F
:1036900040F2E121C2F200010020019008704FF4D5
:1036A000002000F057F901980F21029103900120AA
:1036B000069040F60000C4F6000002A900F0C4FA2B
:1036C00010B1FFE7FFE7FEE7F02002900120039032
:1036D00000210591069040F60000C4F6000002A902
:1036E00000F0B2FA10B1FFE7FFE7FEE740F6000096
:1036F000C4F60000F02100F091FB46F6F170C0F630
:103700000000FCF725FE08B080BD000081B000205D
:103710000090FFE7009802280DDCFFE7009A40F2D6
:103720007411C2F20001002041F83200FFE7009856
:1037300001300090EEE701B07047000081B000203A
:103740000090FFE7009803280DDCFFE7009A40F2A5
:10375000F461C2F20001002041F82200FFE7009866
:1037600001300090EEE701B07047000080B592B0E4
:103770004FF40030029000F011F9029800F032F995
:1037800001200B9000F00AF94FF0904006900421C0
:1037900003910222049200F06DFB03990698072220
:1037A0000A9200F0CDFA039906980322059200F0E0
:1037B00001FC0399049A069800F0B4FB049A069859
:1037C0000821079100F056FB069807990A9A00F025
:1037D000B7FA059A0698079900F0ECFB0698079946
:1037E0000B9A00F09FFB0A990020C4F202000D9092
:1037F00042F2900200F048F944F20040C4F20000A6
:103800000F900021119100F0EDFE0A9902460D98EB
:10381000089200F0AFF9089B0A9902460D98EC4611
:10382000CCF8002040F2F132C2F20002109200F017
:10383000F3F80A990D98119A00F0DAF90D9806211B
:103840000E91A02200F020F90B990F9800F0CAFE0B
:103850000E9902460D98099200F08CF9099A0E997A
:10386000109B84460D98EE46CEF800C003F5807399
:1038700000F0D2F80D980E994FF4807200F0B8F96C
:103880000A990D9800F040F90A990D9800F04EF948
:103890000D980E9900F04AF90F980C2100F064FF82
:1038A0000F98119B19461A4600F082FE0F98119945
:1038B00000F04CFF102000F0C5FC119A01460F9853
:1038C0004FF4165300F012FF0F9800F0E9FE0F9826
:1038D00000F0D0FE0B9926200C9001F0EDFE0C9824
:1038E00001F0B0FE112001F0ADFE0F9800F096FE41
:1038F0000F9800F0A9FE0D980E9900F0F3F80F98BC
:1039000000F082FE1099119881F8010381F80003FC
:1039100047F22D00C0F60000FCF71AFD47F21A002E
:10392000C0F60000122102F0DFF912B080BD0000E5
:1039300082B00190019A41F21400C4F202000168C1
:10394000114301600068019908400090009802B09E
:103950007047000082B00190019A41F21400C4F255
:10396000020001681143016000680199084000905D
:10397000009802B07047000082B00190019A41F2B5
:103980001400C4F20200016811430160006801994B
:1039900008400090009802B07047000082B001908B
:1039A000019A41F21400C4F202000168114301605F
:1039B0000068019908400090009802B0704700002C
:1039C00082B00190019A41F21C00C4F20200016829
:1039D000114301600068019908400090009802B00E
:1039E0007047000082B00190019A41F21C00C4F2BD
:1039F00002000168114301600068019908400090CD
:103A0000009802B07047000081B0009000994FF01C
:103A10008070486001B0704784B0DDF810C003903A
:103A20000291019200930498102815D1FFE70198A4
:103A30000399029A46F65473C0F600031A4412F82A
:103A4000012C1144C86000980399029A1A4412F894
:103A5000012C1144886014E001980399029A46F6FB
:103A60005473C0F600031A4412F8012C1144886004
:103A700000980399029A1A4412F8012C1144C86064
:103A8000FFE704B07047000083B0029001910092FC
:103A90000298019946F65473C0F60003194411F8D0
:103AA000011C405847F6F071884300990843029979
:103AB000019A1A4412F8012C885003B07047000094
:103AC00082B0019000910199009846F65472C0F6B8
:103AD0000002104410F8012C885820F00100885092
:103AE00002B0704782B0019000910199009846F6AB
:103AF0005472C0F60002104410F8012C885840F0AF
:103B00000100885002B0704782B001900091019985
:103B1000009846F65472C0F60002104410F8012CCA
:103B2000885840F00200885002B0704782B001907F
:103B300000910199009846F65472C0F600021044B4
:103B400010F8012C885840F00800885002B07047E7
:103B500082B0019000910198009946F65472C0F627
:103B60000002114411F8011C0844406880B202B000
:103B70007047000082B0019000910198009946F6CC
:103B80005472C0F60002114411F8011C405844F26E
:103B90001001084002B0704781B0009000980068A2
:103BA000C0F3406001B0704782B00190009101986D
:103BB000009946F65472C0F60002114411F8011C37
:103BC000405800F0010002B07047000082B0019040
:103BD00000910198009946F65472C0F60002114413
:103BE00011F8011C4058C0F3400002B070470000BB
:103BF00083B00290019100920298019946F65473A5
:103C0000C0F60003194411F8011C084440684FF63F
:103C1000FF718843009908430299019A1A4412F8E7
:103C2000012C1144486003B07047000081B000903F
:103C300042F20001C4F20201086820F00700009A75
:103C40001043086001B0704780B588B003900291BE
:103C5000029800680790079890FAA0F005900598E0
:103C6000B0FA80F00190FFE7029800680199C8401F
:103C7000002853D0FFE702980068019A0121914083
:103C8000084000900098002844D0FFE70298406860
:103C9000012805D0FFE70298406802280DD1FFE710
:103CA00003980099029A926800F0A8F90398029A82
:103CB0001168D26800F026F9FFE703980099029A8C
:103CC000126900F053F90298406802281BD1FFE7FF
:103CD00000980690069890FAA0F004900498B0FA24
:103CE00080F0072807D8FFE703980099029A5269E5
:103CF00000F04AF806E003980099029A526900F031
:103D000067F8FFE7FFE703980099029A526800F00E
:103D1000D5F8FFE7019801300190A5E7002008B031
:103D200080BD000081B000900098006901B070472C
:103D300082B00190009100980199886202B07047AA
:103D400087B00290019100920298006A0199069151
:103D5000069991FAA1F104910499B1FA81F18A00CE
:103D60000F21914088430099019A0592059A92FA91
:103D7000A2F20392039AB2FA82F2920091400843AF
:103D80000299086207B0704787B0029001910092D3
:103D90000298006A01990691069991FAA1F104919D
:103DA0000499B1FA81F18A000F219140884300996A
:103DB000019A0592059A92FAA2F20392039AB2FA34
:103DC00082F29200914008430299086207B070475E
:103DD00087B00290019100920298406A0199090A05
:103DE0000691069991FAA1F104910499B1FA81F131
:103DF0008A000F21914088430099019A120A059286
:103E0000059A92FAA2F20392039AB2FA82F292000F
:103E1000914008430299486207B0704782B0019010
:103E2000009100980199886102B0704787B00290B4
:103E3000019100920298006801990691069991FA01
:103E4000A1F104910499B1FA81F14A000321914052
:103E500088430099019A0592059A92FAA2F2039278
:103E6000039AB2FA82F25200914008430299086024
:103E700007B0704787B002900191009202980068E5
:103E800001990691069991FAA1F104910499B1FA68
:103E900081F14A000321914088430099019A0592DB
:103EA000059A92FAA2F20392039AB2FA82F25200AF
:103EB000914008430299086007B0704787B00290AC
:103EC000019100920298006801990691069991FA71
:103ED000A1F104910499B1FA81F14A0003219140C2
:103EE00088430099019A0592059A92FAA2F20392E8
:103EF000039AB2FA82F25200914008430299086094
:103F000007B0704783B00290019100920298406818
:103F100001998843009A514308430299486003B0CD
:103F20007047000087B00290019100920298C0682B
:103F300001990691069991FAA1F104910499B1FAB7
:103F400081F14A000321914088430099019A05922A
:103F5000059A92FAA2F20392039AB2FA82F25200FE
:103F6000914008430299C86007B0704787B002903B
:103F7000019100920298C06801990691069991FA00
:103F8000A1F104910499B1FA81F14A000321914011
:103F900088430099019A0592059A92FAA2F2039237
:103FA000039AB2FA82F25200914008430299C86023
:103FB00007B0704787B00290019100920298806824
:103FC00001990691069991FAA1F104910499B1FA27
:103FD00081F14A000321914088430099019A05929A
:103FE000059A92FAA2F20392039AB2FA82F252006E
:103FF000914008430299886007B0704787B00290EB
:10400000019100920298806801990691069991FAAF
:10401000A1F104910499B1FA81F14A000321914080
:1040200088430099019A0592059A92FAA2F20392A6
:10403000039AB2FA82F252009140084302998860D2
:1040400007B0704783B002900191029840690090D8
:10405000009A019802EA0001904340EA0140029967
:10406000886103B07047000081B000900099C86972
:1040700040F02000C86101B07047000081B000909E
:104080000099086840F00100086001B07047000026
:1040900081B000900099086840F00400086001B009
:1040A0007047000081B000900099086840F020003F
:1040B000086001B07047000081B000900099086866
:1040C00040F04000086001B07047000081B00090EF
:1040D0000099086840F00200086001B070470000D5
:1040E00084B0DDF814C0DDF810C003900291019295
:1040F000009303984068059A20EA525048F2004124
:10410000CFF6004108400299019B1943009B41EA08
:104110000341049B1943114308430399486004B0C9
:104120007047000081B000900098806980B2C00B99
:1041300001B0704781B0009000988069C0F38000A2
:1041400001B0704781B0009000988069C0F34010C2
:1041500001B0704781B0009000988069C0F3801072
:1041600001B0704781B0009000988069C0F34000B2
:1041700001B0704781B000900098406AC0B201B0B1
:104180007047000082B00190009100980199086189
:1041900002B0704782B001908DF803109DF80300C3
:1041A0000199886202B0704780B582B00190019891
:1041B0004FF47A7100F002F802B080BD82B0019035
:1041C000009101980099B0FBF1F001384EF2140112
:1041D000CEF2000108604EF21801CEF2000100207C
:1041E00008604EF21001CEF200010520086002B016
:1041F0007047000041F20400C4F20200006800F0C1
:10420000F000704741F20400C4F20200006800F4BC
:10421000E060704741F20400C4F20200006800F45C
:104220006050704741F20400C4F20200006800F0E0
:104230000C00704741F20400C4F20200006800F074
:104240000C00704780B586B005900020049005985A
:1042500070BBFFE7059800F0B7F80146039103280B
:104260001DD80399DFE801F01A02110600F0BCFF27
:1042700004901CE000F0CAF830B1FFE741F20020E2
:10428000C0F27A000490FFE711E000F0C7F820B117
:10429000FFE74FF400400490FFE708E0FFE700F07D
:1042A000A3FF00F069FF00F08DFF0490FFE7FFE738
:1042B0000598102840D1FFE7059800F085F80146E1
:1042C0000291B0F1805F2DD0FFE702980021C1F28A
:1042D000010188420ED0FFE702980021C1F20201DD
:1042E000884216D0FFE702980021C1F203018842FC
:1042F00004D018E000F078FF04901CE000F086F88D
:1043000030B1FFE741F20020C0F27A000490FFE7ED
:1043100011E000F083F820B1FFE74FF40040049073
:10432000FFE708E0FFE700F05FFF00F025FF00F087
:1043300037FF0490FFE7FFE70598122840D1FFE719
:10434000059800F041F801460191B0F1905F2DD041
:10435000FFE701980021C1F2042188420ED0FFE757
:1043600001980021C1F20821884216D0FFE7019888
:104370000021C1F20C21884204D018E000F034FF83
:1043800004901CE000F042F830B1FFE741F2002059
:10439000C0F27A000490FFE711E000F03FF820B18E
:1043A000FFE74FF400400490FFE708E0FFE700F06C
:1043B0001BFF00F0E1FE00F0F3FE0490FFE7FFE7D3
:1043C000049806B080BD000081B0009041F230003A
:1043D000C4F202000068009903228A40104040EABB
:1043E000016001B07047000041F20001C4F2020117
:1043F000086840F4803008607047000041F2000017
:10440000C4F202000068C0F34040704741F200006F
:10441000C4F202000068C0F34000704741F220007F
:10442000C4F202000068C0F34000704782B00190FF
:10443000009141F20401C4F20201086820F47410F2
:10444000019A02F48032009B1A431043086041F243
:104450002C01C4F202010868019A62F303000860AB
:1044600002B0704741F20001C4F20201086840F056
:10447000807008607047000041F20400C4F202003E
:10448000006800F48030704741F20400C4F202007A
:10449000006800F47010704741F22C00C4F2020072
:1044A000006800F00F00704741F20000C4F2020003
:1044B0000068C0F34060704781B0009041F2040191
:1044C000C4F20201086820F0F000009A104308606E
:1044D00001B0704781B0009041F20401C4F20201C2
:1044E000086820F4E060009A1043086001B070474B
:1044F00081B0009041F20401C4F20201086820F486
:104500006050009A1043086001B0704781B000907D
:1045100041F23001C4F202010868009A20EA1260F8
:1045200022F07F421043086001B0704781B00090D4
:1045300041F20401C4F20201086820F00300009A6D
:104540001043086001B070474EF21001CEF2000136
:10455000086840F0020008607047000081B00090D9
:10456000009840F20C01C2F20001086001B07047EF
:1045700081B0009000990220086201B070470000ED
:1045800081B0009000991020086201B070470000CF
:1045900081B0009000990820086201B070470000C7
:1045A00081B0009000990120086201B070470000BE
:1045B00084B003900291019200930398006820F464
:1045C000B0500199029A1143084303990860039877
:1045D000406820F44050009908430399486004B0B3
:1045E0007047000083B002900191019820B9FFE765
:1045F00002982830009003E0029824300090FFE7F2
:10460000009803B07047000081B0009000990868DE
:1046100040F00100086001B07047000082B00190D6
:10462000FFE7FFE7019850E8020F40F040000090DC
:10463000FFE70099019A42E802100028F2D1FFE753
:10464000FFE702B07047000082B00190FFE7FFE78C
:10465000019850E8020F40F080000090FFE70099B9
:10466000019A42E802100028F2D1FFE7FFE702B00A
:104670007047000082B00190FFE7FFE7019850E823
:10468000020F40F001000090FFE70099019A42E814
:1046900002100028F2D1FFE7FFE702B070470000E8
:1046A00082B00190FFE7FFE7019850E8000F40F06B
:1046B00010000090FFE70099019A42E800100028DE
:1046C000F2D1FFE7FFE702B07047000081B0009031
:1046D0000098C069C0F3001001B0704781B000902D
:1046E00000980068C0F3001001B0704786B00590D4
:1046F0000491039202930398B0F5004F19D1FFE79C
:1047000004984000029900EB5100B0FBF1F080B238
:10471000019001984FF6F07108400090019800F068
:104720000E01009840EA5100009000980599C86079
:1047300009E00498029900EB5100B0FBF1F080B25F
:104740000599C860FFE706B07047000082B001908D
:1047500000910198406820F40020009908430199D5
:10476000486002B07047000083B002900191FFE7FB
:10477000FFE7029850E8000F20F00C000199084371
:104780000090FFE70099029A42E800100028F0D15B
:10479000FFE7FFE703B0704783B08DF80B0001918E
:1047A0009DF80B000199087040F28C11C2F20001D3
:1047B00008680130086040F21000C2F20000007882
:1047C0000146009103286FD80099DFE801F0020943
:1047D000336540F28C11C2F2000101200860FFE74E
:1047E0009DF80B005F2812D1FFE740F2DC20C2F2F7
:1047F00000000068013840F2EC21C2F200010860BC
:1048000040F21001C2F200010220087011E040F2F3
:10481000DC20C2F200000068013040F2EC21C2F25C
:104820000001086040F21001C2F20001012008708E
:10483000FFE739E09DF80B00302815D1FFE701991B
:104840003120087040F2DC20C2F20000006801381C
:1048500040F2EC21C2F20001086040F21001C2F205
:1048600000010220087016E09DF80B0031280AD1E3
:10487000FFE701993020087040F21001C2F20001F8
:104880000320087006E040F21001C2F2000103208C
:104890000870FFE7FFE707E040F28C11C2F2000169
:1048A0004FF0FF300860FFE740F28C10C2F20000CA
:1048B000006803B07047000080B588B00020069003
:1048C00040F2E020C2F20000007801460391032884
:1048D00000F24D810399DFE811F004003501D600A4
:1048E0000801002006A9FEF7CBFD002800F0CA80D1
:1048F000FFE740F2E920C2F2000000780728C0F28A
:10490000A780FFE740F2D822C2F2000202924FF0E5
:10491000FF30106040F2E423C2F2000318600698F2
:10492000023046F68A71C0F60001FBF733FD0298AB
:104930000068002800F18B80FFE740F2D820C2F227
:1049400000000068B0F5006F80F28180FFE740F260
:10495000E420C2F200000068012878DBFFE740F2A3
:10496000E420C2F200000068FE2870DCFFE7069831
:10497000007872280CD1FFE706984078642807D1A8
:10498000FFE740F2E021C2F2000102200870EEE0F1
:104990000020059006983E21FBF71AFD059005982A
:1049A0000699401A01308DF81300059800284CD064
:1049B000FFE740F2E420C2F20000006840F2E92183
:1049C000C2F2000109789DF81320891A88423CDC64
:1049D000FFE7059801300590059940F2E420C2F206
:1049E0000000026840F2D510C2F20000FBF73DFD66
:1049F0000698007877280CD1FFE70698407872284F
:104A000007D1FFE740F2E021C2F200010320087065
:104A1000ADE006980078742816D1FFE70698407834
:104A20006D2811D1FFE740F2D820C2F200000068E3
:104A3000012808D1FFE740F2D511C2F200010120A0
:104A400000F04EFC93E0FFE7FFE7FFE7FFE7FFE73B
:104A500040F2D510C2F20000019046F67A71C0F61D
:104A60000001FBF7BFFC0198FBF7E0FC40F2E421FA
:104A7000C2F20001086040F2E021C2F20001012010
:104A80000870FFE773E040F2D820C2F2000000682F
:104A900040F2E421C2F20001096800F045FF0690EF
:104AA000069808B3FFE740F2E822C2F2000210784D
:104AB00040F2E423C2F200031860D3F800C040F2D1
:104AC000D510C2F200000A2100F80C10196801315B
:104AD000196006991278FBF7C8FC40F2E021C2F297
:104AE000000101200870FFE741E040F2D820C2F247
:104AF0000000006840F2E421C2F200010A6840F2BE
:104B0000D511C2F2000100F079FFD0B1FFE740F209
:104B1000D510C2F20000009046F67271C0F6000196
:104B2000FBF760FC0098FBF781FC40F2E421C2F245
:104B30000001086040F2E021C2F20001012008708B
:104B4000FFE714E040F2E420C2F20000017840F2F6
:104B5000D510C2F2000001F0C7F838B9FFE740F203
:104B6000E021C2F2000100200870FFE7FFE708B073
:104B700080BD000080B586B000200590049040F212
:104B8000EA20C2F20000007801460391042800F2F6
:104B900042810399DFE811F005006900D200F300BB
:104BA0000901012005A9FEF76BFC00285CD0FFE796
:104BB000059940F2E420C2F2000002680020885407
:104BC00040F2EC22C2F2000202924FF0FF3010607D
:104BD00040F2B413C2F200031860059846F6CF7194
:104BE000C0F60001FBF7D6FB02980068002822D32C
:104BF000FFE740F2EC20C2F2000001680020B0EBB9
:104C0000D12F18D1FFE740F2B410C2F200000068C3
:104C1000012810DBFFE740F2EA21C2F20001022086
:104C2000087040F21001C2F2000100200870032059
:104C300000F048FB17E040F29010C2F2000046F688
:104C40007A71C0F60001FBF7CDFB40F2EA21C2F217
:104C500000010420087040F2B411C2F200014FF0CC
:104C6000FF300860FFE7FFE7D5E040F2B010C2F286
:104C70000000007840F2B811C2F20001FFF78CFD8D
:104C800004900498013048B1FFE7049840F2B41151
:104C9000C2F20001096888421CD1FFE740F2DC2023
:104CA000C2F20000026840F2B810C2F200000378BD
:104CB00040F29010C2F2000046F6B271C0F6000158
:104CC000FBF752FB40F2B411C2F200014FF0FF308B
:104CD000086017E0049A40F2DC20C2F2000003688A
:104CE00040F2B810C2F2000000786946086040F255
:104CF0009010C2F2000046F69271C0F60001FBF778
:104D000033FBFFE740F2B810C2F20000007840F237
:104D1000B011C2F200010978884207D1FFE740F2E2
:104D2000EA21C2F200010420087006E040F2EA2104
:104D3000C2F2000103200870FFE76CE040F2EC20B3
:104D4000C2F20000016840F2DC20C2F20000016003
:104D50000068012100F0E8FD0590059870B1FFE7BB
:104D60000598007840F2B011C2F20001087040F2DC
:104D7000EA21C2F2000101200870FFE74BE040F297
:104D8000DC20C2F20000006840F2B811C2F200015B
:104D9000012200F033FE38B1FFE740F2EA21C2F20F
:104DA000000104200870FFE735E00320FEF790FBC8
:104DB000B0F57A7F2ED9FFE740F29010C2F20000E2
:104DC0000190FBF733FB0246019840F2E421C2F266
:104DD00000010A60097800F087FFD0B9FFE70320DF
:104DE00000F070FA40F2B410C2F200000068013026
:104DF00038B9FFE740F2EA21C2F200010020087052
:104E000006E040F2EA21C2F2000102200870FFE74A
:104E1000FFE7FFE7FFE706B080BD000080B584B084
:104E20000020039040F2C010C2F20000007801465A
:104E3000009120B1FFE70098012872D08BE002209A
:104E400003A9FEF71DFB00286AD0FFE7039800883E
:104E5000ADF80A00002001900190FFE701980F28AB
:104E600041DCFFE7BDF80A000199C840C007A8B3BC
:104E7000FFE740F2BC11C2F200010B6840F2C11220
:104E8000C2F200024B20D0540198013046F2676311
:104E9000C6F2666350FB03FC4FEA9C0000EBDC703B
:104EA0003030D1F800C094448CF8010001980130F2
:104EB00050FB03FC4FEAAC0303EBDC7303EB83030F
:104EC000A0EB430030300B6813449870086802442C
:104ED0002020D070086804300860FFE7FFE70198E1
:104EE00001300190BAE740F2BC10C2F20000006845
:104EF000012814DBFFE740F2BC11C2F200010A688E
:104F0000501C086040F2C111C2F200010A2088540E
:104F100040F2C011C2F2000101200870FFE7FFE774
:104F200019E040F2BC10C2F20000017840F2C1105A
:104F3000C2F2000000F0D8FE60B9FFE740F2C011F5
:104F4000C2F200010020087040F2BC11C2F2000160
:104F50000860FFE7FFE704B080BD000080B582B0C5
:104F60000120FEF7B5FA0528C0F0B480FFE7012064
:104F700000F0A8F90020ADF8060000F067FEADF8DB
:104F8000060040F2E120C2F20000007801460091E4
:104F9000042800F29E800099DFE801F0031A284BF4
:104FA0007600BDF80600012811DBFFE7BDF806001A
:104FB00040F2D211C2F200010880002000F082F914
:104FC00040F2E121C2F2000101200870FFE780E019
:104FD0000020FEF77DFA0B2807D3FFE740F2E1211E
:104FE000C2F2000102200870FFE772E0BDF806007F
:104FF00040F2D211C2F200010988884211D1FFE7C4
:10500000002000F05FF940F2D211C2F2000102204C
:1050100000F066F940F2E121C2F2000103200870BD
:1050200006E040F2E121C2F2000100200870FFE733
:105030004FE0BDF8060040F2D211C2F2000109882B
:10504000884219D1FFE70020FEF742FAB0F5FA7F57
:1050500011D3FFE7002000F035F940F2D211C2F27F
:105060000001022000F03CF940F2E121C2F200010F
:1050700004200870FFE706E040F2E121C2F20001DF
:1050800000200870FFE724E0BDF8060040F2D211CE
:10509000C2F200010988884213D1FFE70020FEF721
:1050A00017FAB0F5967F0BD3FFE7002000F00AF95E
:1050B00040F2D211C2F20001022000F011F9FFE724
:1050C00006E040F2E121C2F2000100200870FFE793
:1050D000FFE7FFE702B080BD81B000200090FFE74E
:1050E000009802282BDCFFE7009940F27410C2F20E
:1050F000000050F83100022809D1FFE7009A40F281
:105100007411C2F20001002041F83200FFE700995B
:1051100040F27410C2F2000050F83100012809D1A9
:10512000FFE7009A40F27411C2F20001022041F838
:105130003200FFE7FFE7009801300090D0E701B0B0
:105140007047000081B000200090FFE7009803281E
:105150000FDCFFE7009A40F2F461C2F2000151F85F
:105160002200013041F82200FFE700980130009052
:10517000ECE701B07047000080B582B00190019863
:105180000090FFF737F801460098C9B20A0946F6C1
:105190003C71C0F60001895CC84002B080BD0000CF
:1051A00080B582B0019001980090FFF72BF801467E
:1051B00000980A0A46F64C71C0F60001895CC840A6
:1051C00002B080BD80B582B0019001980090FFF7D9
:1051D00021F801460098CA0A46F64C71C0F6000153
:1051E000895CC84002B080BD80B582B000200190CB
:1051F000FFF720F80146009140B1FFE7009804282E
:105200000AD0FFE7009808280CD00FE041F20020F8
:10521000C0F27A0001900FE041F20020C0F27A0063
:10522000019009E000F00CF8019005E041F2002047
:10523000C0F27A000190FFE7019802B080BD000043
:1052400080B588B0002005900490FFF715F9049010
:105250000498039028B1FFE70398B0F5803F06D08B
:105260000BE040F60010C0F23D0005900BE041F26B
:105270000020C0F27A00059005E040F60010C0F270
:105280003D000590FFE705980190FFF705F90146FD
:1052900001980131B0FBF1F00290FFF7F5F80146FB
:1052A000029801F470114FF470120792079A92FA63
:1052B000A2F20692069AB2FA82F2D1400231484333
:1052C00008B080BD81B08DF803009DF8032040F246
:1052D000F461C2F20001002041F8220001B07047E1
:1052E00082B001900091019A40F27411C2F2000163
:1052F000012041F832000098019A01EBC201486098
:1053000002B0704780B5FFF71DFF80BD80B582B049
:105310000220FEF78BFCFFF767F8FFE7FFF76EF858
:10532000012801D0FFE7F9E74FF480304FF4E01196
:10533000FFF77CF8FFF796F8FFE7FFF7B5F80128CD
:1053400001D0FFE7F9E70020FFF7B6F80220FFF7EA
:10535000EDF8FFE7FEF766FF082801D0FFE7F9E761
:105360004FF48060FFF7B6F80020FFF7C1F84AF26B
:105370000020C0F24A400190FEF716FF0198FFF7A7
:10538000EDF802B080BD000085B0002004900390CD
:105390000290019041F20400C4F20200006800F0A3
:1053A0000C0004900498009040B1FFE70098042896
:1053B0000ED0FFE70098082814D04CE040F20C0112
:1053C000C2F2000141F20020C0F27A0008604CE015
:1053D00040F20C01C2F2000141F20020C0F27A005A
:1053E000086042E041F20400C4F20200016801F4E6
:1053F00070110391006800F480300290039902203C
:1054000000EB91400390029860B9FFE7039840F6E3
:105410000011C0F23D01484340F20C01C2F200010C
:10542000086017E041F22C00C4F20200006800F0AE
:105430000F0001300190019941F20020C0F27A0082
:10544000B0FBF1F00399484340F20C01C2F20001B5
:105450000860FFE709E040F20C01C2F2000141F2EE
:105460000020C0F27A000860FFE741F20400C4F2B5
:1054700002000068C0B2010946F63C70C0F60000A8
:10548000405C0490049A40F20C01C2F200010868EA
:10549000D040086005B070474EF68851CEF200014A
:1054A000086840F4700008607047000080B582B062
:1054B00044F20040C4F20000FFF710F9002800F0A9
:1054C0009380FFE744F20040C4F20000FFF7FEF8CB
:1054D000002800F08980FFE744F20040C4F2000099
:1054E000FFF74EF80020C4F202000621FEF730FB61
:1054F000C0F580708DF807009DF8070040F2D411C8
:10550000C2F20001097888426DD0FFE79DF80700DC
:1055100040F2D411C2F200010978884219DDFFE798
:105520009DF8070040F2D411C2F200010A78821AF5
:1055300040F2F130C2F2000080F800230978014403
:1055400001F5807190F8002300F50070FAF78DFFE7
:1055500031E040F2D411C2F200010A789DF8070050
:10556000801A00F5807240F2F130C2F2000080F83B
:1055700000230A78811801F58071C2F5807200F568
:105580000070FAF772FF9DF8070098B1FFE740F24C
:10559000D410C2F20000007840F2F131C2F20001F2
:1055A000081A00F540709DF8072001F58071FAF7A0
:1055B0005CFFFFE7FFE79DF8070040F2D411C2F25D
:1055C0000001087040F2F130C2F2000090F80013C0
:1055D00040F2E922C2F20002117000F500710020D1
:1055E000FFF77EFEFFE713E047F20E00C0F6000073
:1055F000FAF7AEFE44F20040C4F200000090FEF75D
:10560000B7FF0098FEF7CCFF0098FEF7C1FFFFE759
:1056100002B080BD81B08DF803009DF90300002821
:105620000ED4FFE79DF9031001F01F020120904006
:105630004A094EF20011CEF2000141F82200FFE7C4
:1056400001B0704781B08DF803009DF90300002878
:105650000ED4FFE79DF9031001F01F0201209040D6
:105660004A094EF20011CEF2000141F82200FFE794
:1056700001B0704782B08DF8070000919DF90700D6
:1056800000280AD4FFE7009800019DF907104EF2A8
:105690000042CEF2000288540BE0009800019DF811
:1056A000071001F00F014EF61452CEF2000288549A
:1056B000FFE702B07047000082B08DF8070000914C
:1056C0009DF9070000280AD4FFE7009800019DF922
:1056D00007104EF20042CEF2000288540BE0009810
:1056E00000019DF8071001F00F014EF61452CEF2A2
:1056F00000028854FFE702B07047000083B00190B9
:105700000198009048F2010188420CD0FFE7009810
:1057100048F20201884209D0FFE7009848F20301ED
:10572000884206D008E00020029009E000200290A4
:1057300006E00020029003E04FF0FF300290FFE708
:10574000029803B07047000083B001900198009068
:1057500048F2010188420CD0FFE7009848F20201AC
:10576000884209D0FFE7009848F20301884206D03A
:1057700008E00020029008E00020029005E00020F0
:10578000029002E000200290FFE7029803B0704709
:1057900083B001900198009048F2010188420CD03A
:1057A000FFE7009848F20201884209D0FFE700981D
:1057B00048F20301884206D008E00120029008E088
:1057C0000120029005E00120029002E000200290FA
:1057D000FFE7029803B0704780B584B00290019152
:1057E000029820B9FFE74FF0FF30039033E00298B2
:1057F00000783A282BD1FFE7029847F23901C0F62A
:105800000001FAF779FE20B9FFE748F201000390A2
:1058100021E0029847F24801C0F60001FAF76CFE59
:1058200020B9FFE748F20200039014E0029847F223
:105830004001C0F60001FAF75FFE20B9FFE748F229
:105840000300039007E04FF0FF30039003E04FF0B8
:10585000FF300390FFE7039804B080BD84B002904E
:1058600001910298009048F2010188420CD0FFE7B4
:10587000009848F2020188420AD0FFE7009848F2F7
:105880000301884208D00BE04FF0FF3003900BE09B
:105890004FF0FF30039007E04FF0FF30039003E03C
:1058A0004FF0FF300390FFE7039804B0704700000B
:1058B00080B588B0069005910492039306980190F4
:1058C00048F2010188420CD0FFE7019848F202013A
:1058D00088420AD0FFE7019848F20301884218D0B5
:1058E0001AE04FF0FF3007901AE0FFE7049868B124
:1058F000FFE70598411C059100780290029800F09E
:10590000EBF9FFE7049801380490EFE700200790D7
:1059100006E00020079003E04FF0FF300790FFE71C
:10592000079808B080BD000080B586B00490039150
:1059300040F2E220C2F200000078002843D1FFE7E5
:1059400004990020B0EBD12F3CD1FFE70398FE284B
:1059500038D8FFE70398A8B3FFE745F20040C4F248
:105960000000FEF7DFFB60BBFFE740F2E221C2F27E
:10597000000102200870049840F2D421C2F2000114
:105980000860039840F2F023C2F2000383F800019C
:1059900045F20040C4F20000026842F40052026086
:1059A000002283F8FF2009681970694642F200035B
:1059B000C8F200034B600A60A0210123FEF790FBB0
:1059C000FFE7FFE714E040F2E220C2F200000078B7
:1059D00003280CD1FFE740F2E221C2F200010020CF
:1059E000087040F2F020C2F20000059003E0FFE7EB
:1059F00000200590FFE7059806B080BD80B58AB00D
:105A000008900791069240F2E220C2F2000000786E
:105A1000002854D1FFE70698FE284FD8FFE70899E1
:105A20000020B0EBD12F49D1FFE70698002845D0E0
:105A3000FFE745F20040C4F20000FEF773FBE0BB55
:105A4000FFE740F2E221C2F200010120087008984D
:105A500040F2D421C2F200010391086040F2F0202C
:105A6000C2F2000005900022049280F8FF20069AFE
:105A7000013280F80021096801700799069A013007
:105A8000FAF7F3FC0399049A05980B68A02141EA00
:105A9000D31190F80031EC4642F20000C8F2000049
:105AA000CCF804004FF00070CCF8000045F2004044
:105AB000C4F20000FEF714FBFFE7FFE714E040F23A
:105AC000E220C2F20000007803280CD1FFE740F288
:105AD000E221C2F200010020087040F2F020C2F280
