:020000040800F2
:100000005011002011030008190300081B03000809
:100010001D0300081F030008210300080000000062
:1000200000000000000000000000000023030008A2
:10003000250300080000000027030008D15C000829
:100040002B0300082B0300082B0300082B030008D8
:100050002B0300082B0300082B0300082B030008C8
:100060002B0300082B0300082B0300082B030008B8
:100070002B0300082B0300082B0300082B030008A8
:100080002B030008293500082B0300082B03000868
:100090002B0300082B0300082B0300082B03000888
:1000A0002B0300082B0300082B0300082B03000878
:1000B0002B0300082B0300082B030008D135000890
:1000C0002B0300082B0300082B0300082B03000858
:1000D0002B0300082B030008795E00082B0300089F
:1000E0002B0300082B0300082B0300082B03000838
:1000F0002B0300082B0300082B0300082B03000828
:100100000000000000000000000000002B030008B9
:100110002B0300082B0300082B0300082B03000807
:100120002B0300082B0300082B0300082B030008F7
:100130002B0300082B030008000000000000000053
:100140002B0300082B0300082B030008000000000D
:10015000000000000000000000000000000000009F
:1001600000000000000000002B0300082B03000823
:100170002B03000800000000000000000000000049
:10018000000000002B03000800F002F800F0B0F8B7
:1001900014A696E8000CB244B344DA4501D100F04D
:1001A000A7F8BAE80F000FA696E83000A5EB040503
:1001B00004EB0607AAEB0704A7F101074FEA1515A0
:1001C0004FEA3414A4F10104AC4201D300F090F8DA
:1001D00013F0010F18BFFB1A43F0010300F001F800
:1001E000DBE718478C7A0000AC7A0000103A24BF95
:1001F00078C878C1FAD8520724BF30C830C144BF8C
:1002000004680C6070470000704700000023002461
:1002100000250026103A28BF78C1FBD8520728BF16
:1002200030C148BF0B6070476E2900F0B182702961
:1002300000F00D84662907F08482652907F0818229
:10024000672907F07E82612907F07D8203681B0A17
:1002500028BF41F08001692900F05E82642900F026
:100260005B82752900F058826F2900F09B83782902
:1002700000F0D983E92900F03583E42900F03283C6
:10028000F52900F02F83EF2900F09883F82900F07A
:10029000D8830368DB0928BF41F08001632901F09E
:1002A0009984732901F09E84E32901F0A984F3293C
:1002B00001F0AE84002070471FB507F02DFA9DE8CD
:1002C000030002F0E5FC02F00DFA0400002000211A
:1002D00007F01AF8401C60600020002106F0FEFFC5
:1002E000E06002F0F1F81FBD10B502F056F910BD44
:1002F00002F0CAF91146FFF7DFFF06F043F902F0FA
:1003000097FC03B4FFF7F0FF03BC03F075F800009F
:100310000948804709480047FEE7FEE7FEE7FEE799
:10032000FEE7FEE7FEE7FEE7FEE7FEE704480549D5
:10033000054A064B70470000655E00088901000809
:10034000500B002050110020500D0020500D0020B7
:100350000FB4044910B503AA029800F053FA10BC78
:100360005DF814FB640000200FB41CB5084B06AA0E
:100370007B4469460090059800F023FA044600206B
:10038000694600F031FA20461CBC5DF814FB000001
:10039000750400000FB41CB50C0007AA009007D02C
:1003A0004142A14202D32044401E01E04FF0FF3001
:1003B000074B7B4469460190069800F002FA002141
:1003C000002C01D0009A11701CBC5DF814FB0000D9
:1003D0003D0400000FB400B58DB010A90990009144
:1003E0000B904FF0FF300A9000200C9006487844A4
:1003F0000690064878446A4607900F9909A800F0CD
:10040000BDFD0DB05DF814FBAB0B0000C30B00008D
:10041000401ECAB210F8011F8A4202D00029F9D149
:100420000020704740EA0103024630B59B0710D117
:100430004FF0013400E008C208C91D1B9D4315EAB6
:10044000C41FF8D013F0FF0102F8011B0DD01B0AE6
:10045000F8E711F8013B002B02F8013B05D011F839
:10046000013B002B02F8013BF3D130BD10B5431C1A
:1004700002E010F8011B71B18107FAD14FF001328F
:1004800002C88C1A8C4314EAC211F9D0C01A0A06A9
:1004900003D0C01E10BDC01A10BD0A0401D0801EBA
:1004A00010BD0902FCD0401E10BD032A40F230806E
:1004B00010F0030C00F0158011F8013BBCF1020FA5
:1004C000624498BF11F801CB00F8013B38BF11F826
:1004D000013BA2F1040298BF00F801CB38BF00F83D
:1004E000013B11F0030300F0DF86083AC0F00880FA
:1004F00051F8043B083A51F804CBA0E80810F5E79E
:10050000121D5CBF51F8043B40F8043BAFF3008080
:10051000D20724BF11F8013B11F801CB48BF11F8F5
:10052000012B24BF00F8013B00F801CB48BF00F8C5
:10053000012B70474FF000020429C0F0128010F028
:10054000030C00F0E586CCF1040CBCF1020F18BFDF
:1005500000F8012BA8BF20F8022BA1EB0C0100F042
:10056000D7BE5FEAC17C24BF00F8012B00F8012B45
:1005700048BF00F8012B704710B5044610F0030F78
:1005800008BF11F0030F40F015804FF0013E121F1D
:10059000C0F20E8051F8043BA3EB0E0C2CEA030CC6
:1005A0001CEACE1C08BF40F8043BF0D0A1F10401C6
:1005B00002F10402521E08DB11F8013B00F8013B76
:1005C000002BF7D11146FFF7B5FF204610BD000004
:1005D00030B44FF0013C50F8042B51F8043BCCFAF6
:1005E00052F4D51A20D1FCB950F8042B51F8043B31
:1005F000CCFA52F4D51A17D1B4B950F8042B51F8EB
:10060000043BCCFA52F4D51A0ED16CB950F8042B35
:1006100051F8043BCCFA52F4D51A05D1002CDAD0AB
:1006200030BC4FF00000704729BAB1FA81F111F0E7
:100630001801D1F120008440F2D1CA40CB4012F021
:10064000FF0213F0FF0330BCD01A704770477047A9
:10065000704770B5044685690068C10601D530262B
:1006600000E02026C00707D070BDD4E90121304644
:100670009047206A401C20626D1EF6D570BD70B593
:10068000044685690078C00707D170BDD4E901210F
:1006900020209047206A401C20626D1EF6D570BD58
:1006A00009684A0501D540B27047C905FCD500B2BA
:1006B000704709684A0501D5C0B27047C905FCD525
:1006C00080B2704770B50C460546012A05D02878DF
:1006D000800600D5EA69002302E0012305E05B1CE7
:1006E000934202D2E05C0028F9D1A869E618C01A4A
:1006F000A861286A184428622846FFF7AAFF04E088
:10070000D5E9012114F8010B9047B442F8D32846EB
:10071000FFF7B5FF70BD00002DE9F041064600244B
:1007200010687529314616A510D0FFF7B9FF0028CB
:1007300002DA404213A507E031688A0701D512A505
:1007400002E0490704D511A5012401E0FFF7B1FF3C
:1007500000210A2206F1240709E0B0FBF2FCB0FBFD
:10076000F2F302FB1C00303078541846491C002874
:10077000F3D123462A463046BDE8F04100F03BBEA7
:10078000000000002D0000002B00000020000000F1
:1007900011680268006A530501D508700AE0D305A4
:1007A00001D5088006E0130603D5C217C1E900028F
:1007B00000E008600120704701694A1C0261087866
:1007C000704700B58FB0CDE9013100210591054991
:1007D0007944CDE903101146684600F043F90FB0A3
:1007E00000BD0000E5FFFFFF0A6802F8010B0A6088
:1007F0007047D1E900239A4202D2531C0B6010705B
:1008000070470000074B70B50D467B44FFF7D9FFDA
:100810000446284601F053FE10B14FF0FF3070BD82
:10082000204670BD276A00002DE9FF5F15468A4605
:100830000446DFF8AC80F8440027D8E900103E46B3
:10084000CDE9001010E03AF816106A4602A801F04F
:10085000F7FE411C07D02178890603D5E2693918D3
:1008600091420DD80744761C2078800602D5E069B5
:10087000B84205DDAE42E6DB3AF816000028E2D1C8
:10088000A069C01BA0612046FFF7E3FED8E9001075
:10089000CDE90010002017E03AF818106A4602A8C7
:1008A00001F0CEFEB0F1FF3F81460BD000250DF1E7
:1008B000080B05E0D4E901211BF8050090476D1CE9
:1008C0004D45F7D308F10100B0428046E4DB206AD1
:1008D000384420622046FFF7D2FEBDE8FF9F0000AB
:1008E0000E7000002DE9F0418046D21D22F0070273
:1008F0000025D2E90002F52915A614D0011E72F1D7
:10090000000106DA0023D0EB030063EB020211A61C
:1009100008E0D8F800108B0701D50FA602E04907C0
:1009200001D50EA601251146002408F1240704E094
:1009300000F013FD30323A55641C50EA0102F7D141
:100940002B46324621464046BDE8F04100F053BDFB
:10095000000000002D0000002B000000200000001F
:1009600030B4002100F1240408E002F00705D208A9
:10097000303542EA4372DB086554491C52EA0305EC
:10098000F3D10468002310A2250708D504F0200441
:100990000C4304D0C46901230CA2641EC46130BCA2
:1009A00000F029BD10B5044621461068FFF781FE0E
:1009B00002462046BDE810400023D1E7D21D22F0B8
:1009C0000701D1E90023CBE7000000003000000060
:1009D000F0B40D460188090502D5214C7C4402E0A3
:1009E0001F4C7C440E34002100F1240608E002F084
:1009F0000F071209E75D42EA03721B097754491C8D
:100A000052EA0307F3D102780023120704D5702DB0
:100A100006D009B1022311342246F0BC00F0EBBC31
:100A200001231034F8E770B504460D4621461068DE
:100A3000FFF73FFE024629462046BDE870400023EE
:100A4000C6E7D21D22F00703D3E90023C0E70368FD
:100A5000126843F0200303600823C3610023B7E753
:100A6000706E00002DE9F05F894604464FF0000AE1
:100A7000DFF874B1FB44C0F820A02046E168884745
:100A8000002874D0252806D0D4E901219047206A97
:100A9000401C2062F1E700265F462046E168884757
:100AA0002028054607DB312D05D2781910F8200CD7
:100AB00008B10643F1E7B00701D526F00406C4F8F3
:100AC0001CA00027C4F818A02A2D09D0284606F03B
:100AD000AAFB38B304EB8708303DC8F8185019E07A
:100AE00059F8041B204604EB87029161E1688847AE
:100AF000012F054618D1E069002820DA26F02006EB
:100B00001DE0D8F8180000EB800005EB40003038FD
:100B1000C8F818002046E1688847054606F083FBC0
:100B20000028EED1012F0AD02E2D08D12046E168F1
:100B300088477F1C0546022F46F02006C4DBA069CB
:100B4000002803DA404246F00106A061F00701D018
:100B500026F010066C2D0BD0682D09D04C2D39D005
:100B60006A2D35D0742D35D07A2D33D016E038E08B
:100B7000E1682F4620468847B842054609D16C2FC8
:100B800026D04FF48060E16806432046884705463A
:100B900004E06C2F1AD04FF4807006430DB3A5F11A
:100BA0004100192802D8203546F400664A462946F5
:100BB000204626604E46FFF737FB80B101280BD058
:100BC000F61D26F0070000F1080956E74020E4E78B
:100BD0008020D8E70020D6E706F104094DE7284633
:100BE00052E7206ABDE8F09F006E00002DE9FF4F3C
:100BF0001C4691464FF0FF3581B000218A46884659
:100C0000D4E90167A16902986D1C8847216A83466F
:100C100088470028F6D1BBF1FF3F0CD0002F26F407
:100C2000C0661ADD700615D5BBF12B0F0AD0BBF1DB
:100C30002D0F0FD104E04FF0FF3005B0BDE8F08F6D
:100C400046F48066A16902986D1C88477F1E834622
:100C5000002F02DDBBF1300F03D0B9F1000F2AD015
:100C600025E0A1696D1C02987F1E46F40076884736
:100C7000002F834605DDBBF1780F06D0BBF1580F7E
:100C800003D0B9F1000F10D011E0B9F1000F02D07C
:100C9000B9F1100F0BD1A1696D1C02987F1E26F4CB
:100CA000007688478346102000E0082081464FEAFE
:100CB000E970009017E00A20F8E74346AAFB0928EC
:100CC000DDF800C07F1E03FB098046F4007605F1C5
:100CD00001050AFB0C0112EB0B0A029841EBEB78C1
:100CE000A16988478346002F06DD4946584600F033
:100CF00093FF5FEA000BE0D5E16902988847B005F1
:100D000002D46FF0010098E7F00718D1700610D5F3
:100D10005146700505D50023D1EB030163EB0802B2
:100D200000E042462068031D23600068C0E900120D
:100D300005E02068011D21600068C0E900A8284680
:100D40007BE72DE9FF5F1D464FF0FF3B91464FF0DB
:100D500000085F46D5E90146A96901987F1C8847CC
:100D6000296A824688470028F6D1BAF1FF3F0CD0A5
:100D7000002E24F4C06419DD600614D5BAF12B0FDF
:100D800009D0BAF12D0F0ED103E0584604B0BDE8EA
:100D9000F09F44F48064A96901987F1C8847761EFF
:100DA0008246002E02DDBAF1300F03D0B9F1000FF8
:100DB00026D032E0A969761E01987F1C44F40074A5
:100DC0008847002E824605DDBAF1780F06D0BAF1C9
:100DD000580F03D0B9F1000F10D01EE0B9F1000F89
:100DE00002D0B9F1100F18D1A969761E01987F1CA5
:100DF00024F4007488478246102002E0082000E0B6
:100E00000A20814609E0A96908FB0908761E0198B5
:100E10007F1C44F4007488478246002E05DD494655
:100E2000504600F0F9FE0028EDDAE969019888479C
:100E3000A00502D46FF00100A8E7E00725D1600605
:100E400013D5600502D5C8F1000000E040462968CE
:100E50000A1D2A600968220501D5087015E02207DD
:100E600001D5088011E008600FE02868011D2960A5
:100E70000068210502D580F8008006E0210702D530
:100E8000A0F8008001E0C0F8008038467EE72DE938
:100E9000FF5F4FF000089946144646469169D2E933
:100EA00001A7DDF838B001988847054659EA0B00DC
:100EB00005D009E0A1690198761C88470546216A9A
:100EC000284688470028F5D1681C03D05FEACA701D
:100ED00005D015E04FF0FF3004B0BDE8F09F20686A
:100EE000011D2160D0F800800AE05FEACA7001D1DC
:100EF00008F8015BA169761C01987F1E88470546AA
:100F0000002F1ADD681C18D0B9F1000F0DD0E817BA
:100F100005EBD060421120F01F0059F822102A1A68
:100F2000012090400142E0D107E0BBF1000FDCD18D
:100F30002846216A88470028D7D0E1690198884768
:100F4000BBF1000F07D1002E05DD5FEACA7002D1A8
:100F5000002188F80010A068B84203DDBBF1000F43
:100F600003D017B16FF00100B6E73046B4E70000D8
:100F7000026811441378016018467047D160054932
:100F8000794451610449794411620021116111468B
:100F900000F050BEEDFFFFFF5B040000426842B16D
:100FA000016811F8013B23B1521EC0E90012184636
:100FB00070470121C160881E704742685AB1C368FA
:100FC000016843B983688B4205D0491E521CC0E9B1
:100FD0000012002070474FF0FF3070472DE9FF4F9F
:100FE0004FF000089A461446C146464683B0D2E9FF
:100FF00001B7CDF80080CDF8048091690498884746
:10100000109905465AEA010005D009E0A169049843
:10101000761C88470546216A284688470028F5D16E
:10102000681C03D05FEACB7005D02AE04FF0FF3098
:1010300007B0BDE8F08F2068011D2160D0F8008066
:101040001FE002A86A46E9B201F0DAFA411C07D0B3
:10105000801C09D04FF000095FEACB7007D00AE08E
:10106000E169049888473EE04FF0010904E0BDF8CB
:10107000081028F8021B7F1EA1690498761C884777
:101080000546002F1ADD681C18D0BAF1000F0DD0EC
:10109000E81705EBD060421120F01F005AF822102B
:1010A0002A1A012090400142CBD107E01098002875
:1010B000C7D12846216A88470028C2D0E169049830
:1010C0008847B9F1000F0ED1109830B9002E04DD19
:1010D0005FEACB7001D1A8F80000A068B84202DD39
:1010E000109818B117B16FF00100A1E730469FE7E3
:1010F0002DE9FF4F4FF000089B461446454683B04C
:10110000D2E90196CDF80080CDF804809169DDF830
:1011100048A00498884707465BEA0A0005D009E022
:10112000A16904986D1C88470746216A384688479C
:101130000028F5D1781C03D05FEAC97005D01BE008
:101140004FF0FF3007B0BDE8F08F2068011D21602F
:10115000D0F8008010E05FEAC97007D16A464046C7
:10116000B9B201F06DFA411C31D08044A1696D1C07
:101170000498761E88470746002E14DD781C12D08E
:10118000BBF1000007D03B46DDE9101201F088F901
:101190000028E0D107E0BAF1000FDCD13846216A1F
:1011A00088470028D7D0E16904988847BAF1000F32
:1011B00006D1002D04DD5FEAC97001D188F8000076
:1011C000A068B04203DDBAF1000F03D016B16FF092
:1011D0000100B7E72846B5E72DE9FF5F9B461446B7
:1011E00000273D469169D2E90196DDF840A00198BB
:1011F000884780465BEA0A0005D009E0A1690198AA
:101200006D1C88478046216A404688470028F5D1F2
:10121000B8F1FF3F03D05FEAC97005D014E04FF08A
:10122000FF3004B0BDE8F09F2068011D2160076811
:101230000AE05FEAC97001D127F8028BA1696D1C31
:101240000198761E88478046002E15DDB8F1FF3FD5
:1012500012D0BBF1000007D04346DDE90E1201F0C9
:101260001FF90028E5D107E0BAF1000FE1D14046AF
:10127000216A88470028DCD0E16901988847BAF1E3
:10128000000F05D1002D03DD5FEAC97000D1388061
:10129000A068B04203DDBAF1000F03D016B16FF0C1
:1012A0000100BEE72846BCE710B5203AC0F00B802D
:1012B000B1E81850A0E81850B1E81850A0E818504C
:1012C000203ABFF4F5AF5FEA027C24BFB1E81850C2
:1012D000A0E8185044BF18C918C0BDE810405FEA24
:1012E000827C24BF51F8043B40F8043B08BF7047A0
:1012F000D20728BF31F8023B48BF11F8012B28BFA5
:1013000020F8023B48BF00F8012B70474FF0000265
:1013100000B5134694469646203922BFA0E80C50EB
:10132000A0E80C50B1F12001BFF4F7AF090728BFC6
:10133000A0E80C5048BF0CC05DF804EB890028BF42
:1013400040F8042B08BF704748BF20F8022B11F06B
:10135000804F18BF00F8012B704730B5B0F10A027A
:1013600071F100034FEA900E4EEA817EB0EB0E0061
:1013700061EB91014FEA101E4EEA017E10EB0E0068
:1013800041EB11114FEA102E4EEA016E10EB0E00E8
:1013900041EB11214FEA104E4EEA014E10EB0E00C8
:1013A00041EB1141401841F100014FEAD00040EA01
:1013B00041704FEAD1014FEA810444EA907410EB86
:1013C000800544EB01046D1944EB0404521BA34156
:1013D0004FF0000348BF0A3200D530BD401C41F138
:1013E000000130BD10B5044601F074F90068005DDD
:1013F00000F0010010BD2DE9F0470D4699469246D8
:10140000044600F124080168880604D5E06921F04B
:101410001001216000E00120A84201DD471B00E02F
:101420000027A1697A1902EB0900081AA061207847
:10143000C00602D42046FFF70CF9002608E0D4E9E4
:1014400001211AF806009047206A401C761C206291
:101450004E45F4DB2078C0060AD52046FFF7F9F8A0
:1014600006E0D4E9012130209047206A401C206228
:10147000381EA7F10107F4DC07E0D4E9012118F8D0
:1014800005009047206A401C2062281EA5F1010536
:10149000F3DC2046FFF7F3F82078000602D502209F
:1014A000BDE8F0870120FBE72DE9FF4F0C461E4603
:1014B0004FF0FF378BB0D2E90001DDF860800A9071
:1014C0008A46C1F30A5505B93D46002108464FF04A
:1014D0000000BAF1000F00F4400005DA00EB8000D4
:1014E0004FF4400101EA50004FEA9059B9F1010F61
:1014F00000DDB9460A9850EA4A000ED044F6105072
:10150000A5F2FF3545432F14B8F1000F1ED07542E8
:10151000291E1EDDC9F100021CE0B8F1010F4FF0D9
:10152000000001D0302103E0F24305E02154401CCB
:10153000B042FBDB30460022002121540B99C1F858
:101540000880C1E900200FB0BDE8F08FBD1B6D1C05
:10155000DEE74A4600DA694206A801F045F906AB23
:1015600093E8070003AB83E8070050460A9905F0AB
:10157000F4F88DE80700A0F500501F38009003989C
:10158000002D0ADD42F21F014A460844002303A948
:101590000390684605F0A0FB09E0A0F500504A461C
:1015A0001F38002303A90390684605F0BFFB8DE8B0
:1015B00007000004000C03D04FF0FF30410800E0AA
:1015C0001046B8F1000F03D00022009215461EE02D
:1015D000751E05D4FFF7C1FE303262556D1EF9D578
:1015E000B3460122084302D000227F1C04E0207889
:1015F000302801D100227F1E002A099784D01DE0E7
:10160000112D07DAFFF7A9FE303262556D1C50EA42
:101610000102F5D1084302D00098C8B10EE00021C4
:10162000681E05E0235C625C63542254401E491C22
:101630008142F7DBAB46A81B401E0990002004F84E
:101640000B000B98099AC0F80880C0E9002B7AE7D4
:1016500011264FF0000857E72DE9F04F8846044661
:10166000D21D22F0070191B0D1E90001CDE90A01B4
:1016700005F0A8FC02460B98C00F01D02D2007E012
:101680002068810701D52B2002E0202101EAC0005B
:10169000032A099001D0072A05DB0346414620466C
:1016A00001F062F80BE12078800601D5E06900E0E6
:1016B0000620B8F1650F814606D0B8F1660F18D044
:1016C000B8F1670F70D131E00020B9F1110F00902F
:1016D00001DB112301E009F101030AAA01A90CA809
:1016E000FFF7E2FEDDE90C70002609F101058346F3
:1016F00047E001204B4600904FF000470AAA01A99D
:101700000CA8FFF7D1FEDDE90DB00C995D4600266F
:1017100010B909F101000D18B9EB050003D4C0F1AF
:10172000FF3609F10105A5EB09002BE0B9F1010F26
:1017300001DA4FF001090020B9F1110F009048467D
:1017400001DD112300E003460AAA01A90CA8FFF756
:10175000ABFEDDE90C704D4600268346207800077D
:101760000AD4AB4500DA5D4601A8012D04DD41191C
:1017700011F8011C302907D04F4502DA17F1040F88
:1017800004DA012082460FE06D1EEEE7002F02DC36
:10179000ED1B3E4403E0781CA84200DD7D1CB81B15
:1017A00000F1010A4FF000472078000703D4AA4552
:1017B00001DB4FF0FF3A0021B7F1004F0DF1430874
:1017C0008DF8431024D002202B23002F01DA7F4212
:1017D0002D230A21021EA0F1010000DC5FB197FB5E
:1017E000F1FC97FBF1F201FB1C7C17460CF1300C6D
:1017F00008F801CDEEE7A8F1010003702188090582
:1018000001D5452100E06521A0F1010800F8011C87
:1018100009980FA9A1EB0807FF1D00B1012041198C
:1018200001EBEA70A1693844081A401EA0612078D3
:10183000C00602D42046FEF70CFF099828B1D4E96F
:1018400001219047206A401C20622078C00622D5E2
:101850002046FEF7FEFE1EE0002E04DBB34502DD4F
:1018600001A8805D00E03020D4E901219047206A82
:10187000401C2062761CAAF101005FEA000A0AD12E
:1018800000F030FFC0680168405CD4E90121904756
:10189000206A401C2062281EA5F10105DCDC07E05F
:1018A000D4E9012118F8010B9047206A401C2062FE
:1018B000381EA7F10107F3DC2046FEF7E0FE032007
:1018C00011B041E62DE9F04F04460D46D21D22F03D
:1018D000070089B0D0E900974846394605F072FB09
:1018E0000246F80F01D02D2307E02068810701D5BB
:1018F0002B2302E0202101EAC0038DF820300BB138
:10190000012000E00020032A824601D0072A04DBE0
:101910002946204600F028FF3FE12078800601D4C8
:101920000D2500E0E569C7F30A560D2D49DA0021BF
:101930004FEA175B08464FF00000002F00F440000C
:1019400007DA00EB80004FF4400100EBD07001EAB1
:1019500060008115012901DD4FF0FF3100224FEABF
:10196000850CBCF1180F06D31346ACF118004FF0EC
:101970008052C24003E04FF4801323FA0CF30CF1C1
:101980000C0CBCF1200F04D3ACF1200C09FA0CF0C4
:1019900001E007FA0CF000294FF0004801DD18B90A
:1019A0000FE00ED140450CD319EB02095F4121B97C
:1019B000404502D19F4329EA0209BBEB175F00D0E3
:1019C000761C2088000502D57B48784402E07A48DE
:1019D0007844193808AA302302F80A30037C0AF147
:1019E0000101002E0AF1020A53546A4602DC4FF04C
:1019F000300101E04FF031014FF001088DF8001087
:101A000002D0A6F2FF3603E059EA470100D06B4E40
:101A1000002D02DC2178090704D54FF002082E21A1
:101A20008DF80110C44600210BE0C7F303433F01CA
:101A3000C35C491C6D1E02F80830052908F1010835
:101A400001DA002DF1DC00210CE000EB1973491CD8
:101A50001B786D1E082902F808304FEA091908F1B1
:101A6000010801DA002DF0DC21688B0602D516E0B2
:101A7000A8F10108E04505DD02EB080313F8013C7D
:101A8000302BF5D0B8F1000F09DD02EB080313F895
:101A9000013C2E2B03D1090701D4A8F10108002D28
:101AA00005DD3E2102F808106D1E08F10108407C9A
:101AB000002E02F8080008F1010804DA2D20764211
:101AC00002F8080002E02B2002F808000A214FF477
:101AD0007A70864208F101080BDB96FBF0F3303395
:101AE00002F8083096FBF0F308F1010800FB1366DA
:101AF00001E0642E0CDB642096FBF0F3303302F837
:101B0000083096FBF0F308F1010800FB136601E0D2
:101B10000A2E06DB96FBF1F0303002F8080008F1DF
:101B2000010896FBF1F001FB1060303002F808006C
:101B3000A16908F1010808EB050202EB0A00081A86
:101B4000A0612078C00602D42046FEF782FD216AFB
:101B500008AE01EB0A00206204E0D4E9012116F886
:101B6000010B9047BAF1010AF7D22078C00602D5DE
:101B70002046FEF76EFD6E4609E016F8010B3E2882
:101B80000FD0D4E901219047206A401C2062B8F1AF
:101B90000108F2D22046FEF772FD09B00320BDE82D
:101BA000F08F206A2844206203E0D4E9012130202C
:101BB00090476D1EEBD3F8E7CE5E000002FCFFFFFE
:101BC00010B5436913B1AFF3008001E0FEF77AFD71
:101BD000012010BD127800F124010A7000224A7021
:101BE0000122EDE711684FF0FF32E9E710B54369D4
:101BF00013B1AFF3008001E0FEF716FE012010BD27
:101C0000128800F1240182840022C2840122EDE7BF
:101C100011684FF0FF32E9E73A2800D2303820F05F
:101C20002002412A01D3A2F13700884201D34FF0AC
:101C3000FF3070472DE9F34F4FF0000A0C4656462F
:101C40008DB001200C9001F10C000B9062690B9893
:101C500001219047051E2DD0252D2CD0216A8847C3
:101C6000C0B162690B9801219047216A884700281A
:101C7000F7D16269411E0B98904700E0761CA1697C
:101C80000D988847216A88470028F7D1E1690D98A7
:101C90008847DBE7A1690D988847A842074601D12C
:101CA000761CD3E7E1690D9888477F1C02D1BAF111
:101CB000000F6FD06BE162690B9800273D463946F3
:101CC00090472A2804D162690B9801219047012589
:101CD000DFF8D08262690B9801219047A0F13001B2
:101CE0000A290AD24745E5DC07EB870100EB4107EB
:101CF000303FDFD445F01005ECE7E90601D46FF082
:101D000000476C280AD04C2814D0682815D06A28BF
:101D10000DD074281CD07A281AD01DE062690B9867
:101D2000012190476C2802D045F0040514E045F0ED
:101D300002050DE045F020050AE062690B980121DB
:101D40009047682802D045F0080505E045F4006595
:101D500062690B9801219047C4E9015765283DD07D
:101D600019DC58287AD00CDC452837D004DC25282B
:101D700026D041289ED131E046282FD0472899D13E
:101D80002CE05B2877D0612828D063287CD0642899
:101D900023D15AE0F6E06F2848D008DC66281DD031
:101DA00067281BD0692821D06E2816D127E070281B
:101DB00045D0732868D0752847D078280DD14DE0DC
:101DC000A1690D988847252805463FF469AFE16968
:101DD0000D9888476D1C3FF46AAFD8E00D992346F3
:101DE0006A466FF0010005F010FDC5E045F04000C7
:101DF00023464FF000026060A80736D43EE0E807B3
:101E00007FF447AF2068011D21600068290501D5D6
:101E100006701BE7290701D5068017E7A90703D538
:101E2000F117C0E9006111E706600FE745F04000D7
:101E300023464FF008026060A80716D41EE040F663
:101E40000E0125EA0100606016E045F040002346DF
:101E50004FF00A026060A80707D40FE045F0400089
:101E60006060A80708D5234610220D996FF0010085
:101E7000FEF7BCFE80E007E0102223460D996FF0CC
:101E80000100FEF75EFF77E04FF0000963284F4640
:101E9000C8464B46CB4602D05B2806D038E0E80661
:101EA00001D40120A060012732E06269D4F80CB0AF
:101EB0000B98012190475E2807D14FF00109494650
:101EC0006269D4F80CB00B989047216939B90021A8
:101ED0000A4603AB43F82120491C0829FADBD8B392
:101EE000216949B308F1010862690B980121904703
:101EF0005D28F4D1B9F1000F09D0002003A951F8F1
:101F00002020D24341F82020401C0828F7DB03ABF7
:101F10002069002820794FEA40701ED05B46224697
:101F2000CDF80080CDE901970D9900286FF00100F0
:101F300020DAFFF751F91FE0C11703AA00EBD161C6
:101F40004B1121F01F0102EB8302411A136801209B
:101F5000884003431360C7E719E00D992246002823
:101F60006FF00100009702DAFFF738F804E0FEF79F
:101F70008EFF01E0FFF7BCF800280ADA401C06D10A
:101F80000C9820B14FF0FF300FB0BDE8F08F5046F5
:101F9000FAE7E90701D10AF1010A064400200C9092
:101FA00054E60000CCCCCC0C2DE9FF4F06468BB09C
:101FB0000878FF2806D0491C2D2805D000244FF0B2
:101FC000000908E000200CE00124F8E709EB890390
:101FD000491C00EB43090878FF28F7D114B1C9F177
:101FE00000008146107800252C46AA4629462D2857
:101FF00001D02B2804D1521C2D2813D0002082465A
:102000008B461078FF280FD04FF0000C0A21521C8D
:10201000A5FB017804FB018105FB0C11C5194BEBF5
:102020000104EEE70120EAE7002108464FF0000036
:10203000BAF1000F02D000EB80004008C0F38157D6
:10204000012F01DD4FF0FF370E9955EA040009EB2F
:1020500001080BD04FF0020918F5FA7F16DA4FEAA3
:10206000CA70002F706008DD012007E04FEACA70D7
:10207000C6E900B00FB0BDE8F08F0020306000F07E
:1020800035FBC0F800901821084616E0B8F5FA7F35
:1020900018DD002F02DAF748784401E0F64878446A
:1020A000D0E90010C6E9001040EACA70706000F084
:1020B0001DFBC0F80090142108460FB0BDE8F04F9A
:1020C00005F03CBB002108464FF00000B8F10001CC
:1020D000099002DAC7F1000200E03A4601DAC8F1DD
:1020E000000106A800F080FB06AB93E8070003ABF5
:1020F00083E8070044F23E005BEA04010090584682
:1021000004D144F21E012C465D460091210C0904C5
:10211000014306D10099240444EA15442D041039E2
:10212000009104F07F41014306D10099240244EA62
:1021300015642D020839009104F07041014306D165
:102140000099240144EA15742D01091F009104F03F
:102150004041014306D10099A40044EA9574AD00C2
:10216000891E009104F00041084304D100986D19C4
:102170006441401E00904FF001033A466846B8F1B2
:10218000000FCDE9014503A902DD04F0E4FD01E003
:1021900004F0B7FDBAF1000F04460D4601D084F0FB
:1021A0000044002108464FF00000099940F2FF77F3
:1021B000484010F00C0F07D124F00040284303D012
:1021C000C4F30A50B84212D100F090FAC0F800905F
:1021D000C4F30A50B8420AD1A8487844D0E90010A4
:1021E000C6E9001004F000410843706042E7C6E908
:1021F00000543FE72DE9FF4F1F464FF0000A4FF014
:10220000FF38454691B0D7E90146CDF83CA000F033
:1022100069FAC0680168405C1090B96912986D1C39
:102220008847396A814688470028F6D1B9F1FF3FCF
:102230000AD0002E24F4D06411DDB9F12B0F08D0A0
:10224000B9F12D0F0BD102E0404615B013E744F46D
:102250008064B96912986D1C8847761E81466005B6
:1022600004A901D52D2000E02B20002E01F1010B47
:102270000DF130088DF810003FDDB9F1690F08D07D
:10228000B9F1490F05D0B9F16E0F02D0B9F14E0F77
:102290001CD13B4601A8009580E85002DDE91212EE
:1022A0006FF0020005F0B5FAC11CCED10EE0B9699D
:1022B00012986D1C884781461398761E44F400746A
:1022C00005600F98401C002E0F9016DDB9F1300FFD
:1022D000EDD0B9F1780F02D0B9F1580F0DD10F98A8
:1022E00001280AD13B46CDE90054DDE91212001F56
:1022F000029605F08CFAC11CA7D1109989453ED1F0
:1023000044F0800406E01399681CAAF1010A44F421
:1023100000740860B9696D1C1298761E88473028D1
:102320008146F0D02BE01099894505D1200603D4D1
:10233000761E44F0800418E0484604F074FF08B3A9
:10234000761E0DF123029345A9F1300044F4007488
:1023500006D20BF8010B200607D5AAF1010003E015
:10236000200602D40AF101008246A00502D5139985
:10237000681C0860B96912986D1C88478146002E58
:10238000D1DC53E0002E51DDB9F1650F02D0B9F177
:10239000450F4BD1A00549D5B9696D1C1298761E21
:1023A00024F440748847002E81460CDD2B2804D08D
:1023B000B9F12D0F07D144F48074B96912986D1CDE
:1023C0008847761E8146E00501D52D2100E02B21AE
:1023D00008F8011BCDF8008021E0761E0DF13901CF
:1023E000884544F400740CD2A9F1300010F0FF00CD
:1023F00088F8000002D10099884509D908F1010840
:1024000006E0E00501D51E4801E042F20F70824669
:10241000B96912986D1C8847814613980560002E93
:1024200004DD484604F0FFFE0028D6D1F969129871
:102430008847FF2053468BF8000088F800000020F2
:102440000A900B9004AA0CA90AA8FFF7ADFDA005FD
:1024500002D46FF00100F8E614F0240F12D0E00768
:102460001CD13868DDE90A12031D3B600068C0E931
:10247000001213E0FC5B0000EE5B0000B25A0000AB
:10248000F1D8FFFF0AA9684604F0BAFEE00705D1BB
:102490003868009A011D3960006802602846D4E659
:1024A00010B508E030F8024B9C4204D10AB100207C
:1024B00010BD012010BD491EF4D2104610BD007B96
:1024C00000F080007047000010B542485421FEF72C
:1024D0001DFF41485421FEF719FF40485421FEF7E3
:1024E00015FF3F493B483C4A3F4B08603D490A6065
:1024F0003A491960531C0365481C106501200865A2
:102500003B48344A39A1784400F0F4FA20B93848FD
:1025100078440A3800F095FB37482F4A35A17844B3
:1025200000F0E8FA20B9344878440A3800F089FB12
:1025300032482A4A2FA1784400F0DCFA20B92F480B
:1025400078440A3800F07DFB40232248DC0000215B
:10255000224600F0ACFA20B125487844543800F007
:1025600070FB1D4822464023002100F0A0FA20B154
:1025700021487844543800F064FB18482246102360
:10258000002100F094FA002806D01C487844BDE8E9
:102590001040563800F055BB10BD104870B5006DA6
:1025A00020F001040B4800F01DFB0B4800F01AFB63
:1025B0000A4800F017FB09E0206D20F001052046D5
:1025C00000F010FB204600F095F82C46002CF3D1CB
:1025D00070BD00001000002064000020B800002042
:1025E000000000200400002008000020720000000D
:1025F000615400007700000050540000295400008E
:10260000F8B516460C46054600F064F8036893F8E2
:102610000101012804D0185D78B101202C80F8BD9B
:10262000D3F803013246214603F20313C718684664
:102630000023B84700992980F8BD4FF0FF30F8BD5E
:102640002DE9F04116460C46054600F043F80368B4
:1026500093F80101012807D0FF2C12D8185D80B132
:1026600001202C70BDE8F081D3F8070132462146E5
:1026700003F20713C7182846BC46BDE8F041002303
:1026800060474FF0FF30EDE7754600F0E1FAAE46E7
:1026900005006946534620F00700854618B020B56E
:1026A000FDF744FEBDE820404FF000064FF0000764
:1026B0004FF000084FF0000BAC46ACE8C009ACE8A6
:1026C000C009ACE8C009ACE8C00921F007018D469B
:1026D0007047000010B500F005F8001D10BD00BFE8
:1026E000294C0000004870472C010020004870472A
:1026F0000C01002070B50446051F00F0ADFA00681B
:10270000002C14BF446870BD002C18BFAC423CBF05
:1027100020466468F8D301680A18AA4218BF4560C9
:1027200003D12A6805461144016028684119A14275
:102730001CBF6C6070BD61686960216808442860D6
:1027400070BDB2F120030AD5C2F1200301FA02F1F3
:1027500020FA03F341EA030100FA02F0704700FA9D
:1027600003F14FF0000070472DE9F0411F46044689
:1027700003260168072A01F4006004DB08B116A5EE
:1027800005E016A503E008B115A500E015A521F0A8
:1027900010002060A069C01EA0610FB1401EA061A2
:1027A0002046FDF756FF4FB1D4E901213846904746
:1027B000206A401C2062C01C206206E0206AFAE702
:1027C000D4E9012115F8010B9047761EF8D2204676
:1027D000FDF755FFBDE8F0814E414E006E616E0081
:1027E000494E4600696E66002DE9F047814616465F
:1027F0008AB0354878440DC88DE80D0032487844D9
:10280000801C03AC0DC884E80D0041F69B300844E1
:10281000372190FBF1F290FBF1F5A5F1800501FB6A
:1028200012041B3C02D56442012000E00020DFF8C6
:1028300098A080460027FA44AAF1BE0A0EE0E007FD
:102840000AD03246684607EB470101230AEB8101B3
:1028500004F06CFA8DE8070064107F1C002CEED1A8
:10286000194F7F44AE3F19E0E80715D007EB04107D
:102870000DF1180A90E80E008AE80E00C068F042D8
:1028800001D1981908903246012306A903A804F043
:102890004DFA03AB83E807006D10641C002DE3D1F3
:1028A0004FF0010332466946B8F1000F03A802D089
:1028B00004F012FA01E004F039FAC9E90001C9F89C
:1028C00008200AB0BDE8F087345100002DE9F05F20
:1028D000054617460C46C86820F4201040F48000D6
:1028E000C860800602D5084600F045FDE06841F268
:1028F00082014FF0FF3A0140022903D0204600F048
:10290000D7FCB9E000F42041B1F5004F0FD1C0036E
:1029100006D56168E06A884200D80846606006E033
:102920002069E0626060606903F0F4FBA061A06868
:102930000022EEB200280DDAE1688B050AD4C0430C
:10294000A06041F490302260E0606068411C6160EA
:102950000670AAE0E0689146226040F40050E06012
:10296000206978BB606903F0F9FB04F124054FF09E
:102970000108A8B1A08910F4407F08D0E06900F0F8
:10298000B6F9206118B1E06840F4006017E0C4F8BF
:102990001C802561E06820F4407040F480600EE007
:1029A000E06900F0A4F900282061F0D0E06840F46C
:1029B000006010F4407FE06002D140F48070E0607D
:1029C00020696060E06825696FF0010BC1051ED5C4
:1029D0006168E06A884200D80846411B04D022465C
:1029E000284600F06FFCE8BB1FB1E562C4E901595D
:1029F00059E0681CE0626060E069401EA060E06829
:102A000040F48030E06030462E70BDE8F09F17B192
:102A100000F480320AE06068411C61600670E06882
:102A20000A2E40F48030E06006D00022E16A60683F
:102A3000814203D90B4602E00122F7E70346B4F8CE
:102A40000CC05B1B5FEA4C5C04D4D4F81CC09C45F2
:102A500000DD02B3814200D80146002BA1EB000843
:102A6000E56200E008E0C4E9015907DD22461946A5
:102A7000284600F027FC08B15046C6E7B8F1000F21
:102A800009D0A169E5626560A1EB0800A061E0687A
:102A900040F01000E06047B16168A069E562491B41
:102AA00008446560A0615846AFE73046ADE770B5B1
:102AB000C468A50713D0650211D4B2F5807F09D090
:102AC000B2F5007F06D0B2F5806F08D1012300F186
:102AD000240106E05D1E6FF07F46B54201D3012060
:102AE00070BD0161C361416024F470611143C16034
:102AF000002070BD2DE9F0410C461646070047D076
:102B0000104600F06FF82078611C61280AD0722806
:102B100002D077283CD102E00125002405E00225FF
:102B2000042402E0082448F2020511F8010B2B28C6
:102B300006D0622809D011F8010C74280AD00BE0E5
:102B400045F0030544F00204EFE745F0040544F0C6
:102B50000104EAE744F010043846214603F022FB62
:102B6000411C15D00021316171604FF40071F56096
:102B7000F1617061200704D530460222002100F087
:102B80001BFB306D40F0010030653046BDE8F08140
:102B90000020FBE72DE9F0410D460646104C206D64
:102BA000C10704D0410804D020F00104F7E7224611
:102BB0000EE0542000F09BF807000ED0206D47F087
:102BC00001010843542120653846FEF79FFB3A4631
:102BD00029463046BDE8F0418CE70020D6E70000EA
:102BE000100000202DE9F04704464FF0FF38002682
:102BF000C568D4E90497A80718D0204600F098FBD0
:102C0000384603F061FA002800DA4646280502D566
:102C10004846FFF76FFD4C212046FEF777FB206DFD
:102C200020F0010020653046BDE8F0874046FBE714
:102C300010B50446AFF300802046BDE81040FDF714
:102C400060BB10B500F0BEFBBDE8104000F0B4BBA7
:102C5000004870470C010020004870471401002014
:102C6000704770477047704738B504460A460020E1
:102C70006946AFF30080002808BF38BD02460099BE
:102C8000204600F0C5FB012038BD012000F014BC37
:102C9000F8B5AFF30080054600200C460C2000BFBD
:102CA0000646A819A0420DD9324669460020AFF366
:102CB0000080070008BF00F0FFFB0098A04218BF8B
:102CC0000546C419FFF7C8FF05600746F01D20F050
:102CD00007004619284600F095FBB44208BFF8BD2E
:102CE000A21B31463868BDE8F84000F091BB70B5D2
:102CF0000646FFF7B1FF056806F10B0020F0070458
:102D0000B4429CBF002070BD2B466A68BAB11068FF
:102D1000A04210D304F1080188423CBF50685860BB
:102D200007D35168101941601168091B0160586090
:102D30001460101D70BD13465268002AE7D1214669
:102D40002846FFF791FF0028DED170BD10B5FFF7D0
:102D5000CDFC006810BD10B50446FFF7C7FC046049
:102D600010BD00002DE9FF4F1F464FF03C0987B012
:102D70004FF00042DDE9141001F10108DDF858A020
:102D800002EA405003900020059083460546044621
:102D90000490B969461E08988847AAF1010A029072
:102DA000BAF1000F3BDD02982E2815D01021FEF756
:102DB00033FF00282EDB4FF0010B0599014317D09C
:102DC000B9F1000F0BDB4A46C117FFF7BAFC054308
:102DD0000C43A9F1040905E0012004900BE008B1BF
:102DE00045F0010501200590049820B9361D02E048
:102DF000049800B1361FB969089808F1010888479E
:102E0000BBF1000FAAF1010A0290C9D00999C1F8DB
:102E10000080C5E70298702808D0502806D0F969CC
:102E200008988847BBF1000F14D04FE000200290B3
:102E30000120BBF1000F049009D0B969089808F18E
:102E400001088847AAF10109B9F1000F07DCF96907
:102E5000089888476FF001000BB0BDE8F08F2B2871
:102E600004D02D280CD14FF0FF300490B969089898
:102E700008F101088847A9F10109B9F1000FE6DD61
:102E8000411CE4D00A21FEF7C7FE0028DFDB0299CF
:102E900008F1010801EB810100EB41000290B969E2
:102EA000089888470A21FEF7B7FE099AA9F1010997
:102EB000B9F1000FC2F8008001DD0028E7DAF969F6
:102EC000089888470499029800FB016655EA0400B7
:102ED00004D004F04041090002D006E0039898E0D5
:102EE000A40044EA9574AD00B61E04F00041080049
:102EF00002D16D196441761E159810F0240F03D08D
:102F00004FF00B095C4803E04FF028096FF07D009B
:102F10008246564507DAAAEB06018944B9F1410F0A
:102F200001DD4FF0410901200021A9F10102FFF765
:102F300008FC024628400B462140084301D00121ED
:102F400000E00021501E029143F1FF312840214052
:102F5000084301D0012000E000200299834651EA95
:102F60000B014FD0002108464FF00000039900F4F8
:102F7000400039B100EB80004FF4400100EBD0700D
:102F800001EA60008015012802DD4FF0FF3000E00B
:102F900013D0401C36D0029860B3BBF1000F0CD1A7
:102FA0004A4601200021FFF7CCFB2840214008437E
:102FB00001D0012000E00020E0B101204A460021BC
:102FC000FFF7BFFB034640190A4661412D1A8C41A9
:102FD00011D3B9F1400F09DD159810F0240F02D07C
:102FE000AAF1340603E0AAF1170600E0761C0025DA
:102FF0004FF0004406E05B1E42F1FF3220EA030579
:1030000021EA0204CAF10100B04206DA1B49039822
:1030100008430190002000900EE0039AC4F3D321EE
:10302000E80A0A43164940EA44500A433146CDE9CA
:103030000002684604F0EDF8159810F0240F0BD04C
:103040001598C00715D13868DDE90012031D3B60F3
:103050000068C0E900120CE002A8694604F0D0F84C
:103060001598C00705D13868029A011D39600068BB
:1030700002604046F0E6000002FCFFFF0000F07F27
:103080000000F03F2DE9FF4F92461D4685B04FF0FE
:103090000041DDE9124BDDE914727F1E01EA4B505D
:1030A000414940F0FF4940EA0108002122F0200098
:1030B0004928049102D04E2828D04CE03BA001269C
:1030C00007C88DE80700A9690698641C88477F1E19
:1030D000014606D41DF8060018B121F020018142F6
:1030E0000BD0E96906988847032E34D0082E32D0D9
:1030F0006FF0010009B0BDE8F08F761C032E01D0FF
:10310000082EE0D1601CCAF80000DCE7A969069827
:10311000641C88477F1E2AD420F02000412826D135
:10312000A9690698641C88477F1E20D420F02000DF
:103130004E281CD1A9690698641C88477F1E48F454
:10314000002849F48009CAF8004001D4282806D094
:10315000E969069888475FEACB7012D022E0A96936
:103160000698641C88477F1E01D4002803DAE969A9
:1031700006988847BCE72928F1D1641CCAF80040AA
:10318000E9E71BF0240F07D028680499031D2B6082
:103190000068C0E9001805E02868021D2A60006880
:1031A000C0F800902046A5E70000F07F494E464950
:1031B0004E495459000000002DE9F04104461646DE
:1031C0000D464769007B80072ED0384602F0C6FFC7
:1031D00050BB3EB3012E02D0022E25D104E0204682
:1031E00000F030F905441DE0384602F093FFE16835
:1031F000002841F01001E16005DA204600F058F89F
:103200000120BDE8F081C9030BD56268E16A9142F3
:1032100000D81146A26911442269891A814200DD51
:1032200008460544002D01DA0220EAE7E16A6068F9
:10323000E268814206D29103E06203D522F40031B4
:1032400041F01002A6690027AE4213DCE16A814218
:1032500001D90B4600E0034603EB060C2369ACEBF7
:10326000030CAC4506DD814201D98C4600E0844662
:103270009C4505D1A760276042F02000A5620DE0C3
:10328000AD1BE669AE1B8142A66000D90846C01A94
:10329000281A20605819606022F020000349084075
:1032A000E060002084F84870ABE70000BFCFD7FF94
:1032B000C16821F4001141F08001C16000218160EA
:1032C000016070472DE9F74F15460C464FF0FF3B64
:1032D0003848D768D2F814A0074209D05046A969E7
:1032E00002F0A2FF002819DB3248C0430740EF601C
:1032F0004FF000496FF000484C4501D3464600E0CE
:10330000264600993B465046324602F0B7FFA9696F
:1033100020F00042B21A1144A96128B12846FFF7F3
:10332000C7FF5846BDE8FE8FA41BE5D10020F9E792
:1033300070B504460569C06A6168884200D80846CD
:10334000E16821F42011E160C90312D5A84208D038
:103350002246411B2846FFF7B5FF10B14FF0FF3062
:1033600070BD0020E562C4E90150E06820F48030BF
:10337000E060002070BD10B50446C06820F0200059
:10338000E060A16AA06988420DD02046FFF7D0FF17
:10339000E06820F4405040F01000E060A06AA061B6
:1033A0002069E062606044F24001E0688843E060C8
:1033B00010BD000010000200002801D000F01CB871
:1033C0007047000010B5014602A000F05CF8012033
:1033D00010BD000053494752545245443A205265AB
:1033E0006469726563743A2063616E2774206F703C
:1033F000656E3A200000000001491820ABBEFEE7D0
:103400002600020000210160416070470C207047D7
:10341000034640688C46002818BF88423CBF0346DC
:103420004068F8D318681844884207D00CF10300AC
:1034300020F00700001D411A521A0146081D0A60BB
:10344000FFF758B910B50146C268900703D090063F
:1034500007D5886A0AE0FFF749F901210160881E53
:1034600010BD8B69486818440B69C01A91F8483040
:103470001BB191F84910401A10BD1103FCD500286A
:10348000FADD401E10BD70B505460C460A2000E06E
:103490006D1C00F018F835B128780028F8D102E04A
:1034A000641C00F010F814B120780028F8D1BDE8B1
:1034B00070400A2000F007B810B500F00DF8BDE824
:1034C0001040FFF779BF08B569468DF8000003206A
:1034D000ABBE08BD7047000010B5012805D0002123
:1034E00003A0FFF7D0FF012010BD09A1F8E70000FD
:1034F00053494752544D454D3A204F7574206F66DD
:103500002068656170206D656D6F72790000000044
:103510003A2048656170206D656D6F727920636F28
:10352000727275707465640080B582B00020C4F258
:103530000200072100F026FC90B1FFE70020C4F252
:10354000020000F005FC58B1FFE70020C4F20200C1
:10355000019000F035FB0198072100F08DFBFFE79B
:1035600002B080BD83B001900091019940F26C10CF
:10357000C2F2000050F83100022812D1FFE7019892
:1035800040F26C11C2F2000101EBC0004068009AE9
:103590001060019A002041F8320001208DF80B00E4
:1035A00003E000208DF80B00FFE79DF80B0003B04F
:1035B0007047000081B08DF803009DF8031040F6BD
:1035C0003C30C2F2000050F8210001B0704700000A
:1035D00080B584B045F20040C4F2000000F09EFEC9
:1035E000A8B1FFE740F23870C2F20000039090F8F3
:1035F000FF10415C45F20040C4F2000000F0A6FE5E
:10360000039991F8FF00013081F8FF008CE045F24A
:103610000040C4F2000000F069FE98B1FFE745F2F7
:103620000040C4F2000000F081FE40F23871C2F2A6
:10363000000191F8FF20885491F8FF00013081F8D3
:10364000FF0070E045F20040C4F2000000F05EFEB2
:1036500060B3FFE740F23870C2F20000002280F849
:10366000FF2040F2C421C2F200010B680E2101EAE2
:10367000D311A03190F80031EC4642F20040C8F27C
:103680000000CCF804004FF00070CCF8000045F2C8
:103690000040C4F2000000F0FFFD00BF00BF00BF0B
:1036A00000BF00BF00BF00BF00BF3BE045F20040CD
:1036B000C4F2000000F022FE98B3FFE745F200409C
:1036C000C4F2000000F0ACFD40F23871C2F200011B
:1036D00091F8FF0091F80011884207D0FFE747F604
:1036E000F230C0F60000FCF733FE1DE040F2CE20C1
:1036F000C2F20000007802280CD1FFE740F23870D7
:10370000C2F2000090F8000140F2D421C2F20001A0
:103710000870FFE740F2CE21C2F2000103200870DA
:10372000FFE7FFE7FFE7FFE704B080BD81B000904F
:1037300040F68060CEF200000068C007A0B1FFE74D
:1037400040F60060CEF200000068C00760B1FFE7FD
:10375000FFE74FF06040006808B9FFE7F9E700981D
:103760004FF060410870FFE7009801B0704700001B
:1037700080B588B040F2CD21C2F200010020019056
:1037800008704FF4002000F0C1F901980F21029158
:1037900003900120069040F60000C4F6000002A944
:1037A00000F02EFB10B1FFE7FFE7FEE7F0200290EC
:1037B0000120039000210591069040F60000C4F618
:1037C000000002A900F01CFB10B1FFE7FFE7FEE7D5
:1037D00040F60000C4F60000F02100F0FBFB47F6C5
:1037E0000E40C0F60000FCF7B3FD08B080BD00003D
:1037F00081B000200090FFE7009805280DDCFFE76E
:10380000009A40F26C11C2F20001002041F832002F
:10381000FFE7009801300090EEE701B0704700002C
:1038200080B586B040F2D820C2F20000019000219D
:103830000391016041608160C160017441748174D1
:1038400003220292C2740122027541768176C1611F
:10385000016280F8241080F8251180F8261180F884
:103860002D1280F82E1280F82F1200F22D104FF436
:1038700080710491FCF75EFE0198153047F618310F
:10388000C0F60001FCF7CEFD029B039A049940F2BA
:103890000850C2F200000590026042608260C2607F
:1038A000027442744FF0080C80F812C04FF0040C00
:1038B00080F813C0037542768276C261026280F896
:1038C000242080F8252180F8262180F82D2280F8F8
:1038D0002E2280F82F2200F22D10FCF72BFE0598E7
:1038E000153047F61C31C0F60001FCF79BFD06B011
:1038F00080BD000081B000200090FFE70098042800
:103900000DDCFFE7009A40F63C31C2F200010020D6
:1039100041F82200FFE7009801300090EEE701B087
:103920007047000080B592B04FF40030029000F074
:1039300011F9029800F032F901200B9000F00AF919
:103940004FF090400690042103910222049200F06F
:103950006DFB0399069807220A9200F0CDFA0399AD
:1039600006980322059200F001FC0399049A069838
:1039700000F0B4FB049A06980821079100F056FB6A
:10398000069807990A9A00F0B7FA059A06980799D7
:1039900000F0ECFB069807990B9A00F09FFB0A9940
:1039A0000020C4F202000D9042F2900200F048F9AB
:1039B00044F20040C4F200000F900021119100F089
:1039C000EDFE0A9902460D98089200F0AFF9089BA7
:1039D0000A9902460D98EC46CCF8002040F63902D0
:1039E000C2F20002109200F0F3F80A990D98119AB1
:1039F00000F0DAF90D9806210E91A02200F020F9CE
:103A00000B990F9800F0CAFE0E9902460D98099284
:103A100000F08CF9099A0E99109B84460D98EE4699
:103A2000CEF800C003F5807300F0D2F80D980E991F
:103A30004FF4807200F0B8F90A990D9800F040F93F
:103A40000A990D9800F04EF90D980E9900F04AF978
:103A50000F980C2100F064FF0F98119B19461A462D
:103A600000F082FE0F98119900F04CFF102000F03A
:103A7000C5FC119A01460F984FF4165300F012FF3F
:103A80000F9800F0E9FE0F9800F0D0FE0B99262069
:103A90000C9002F0F7FA0C9802F0BAFA112002F03A
:103AA000B7FA0F9800F096FE0F9800F0A9FE0D9857
:103AB0000E9900F0F3F80F9800F082FE109911981B
:103AC00081F8010381F8000347F64A40C0F6000080
:103AD000FCF73EFC47F63740C0F60000122102F02A
:103AE00005FE12B080BD000082B00190019A41F243
:103AF0001400C4F2020001681143016000680199DA
:103B000008400090009802B07047000082B0019019
:103B1000019A41F21400C4F20200016811430160ED
:103B20000068019908400090009802B070470000BA
:103B300082B00190019A41F21400C4F202000168BF
:103B4000114301600068019908400090009802B09C
:103B50007047000082B00190019A41F21400C4F253
:103B6000020001681143016000680199084000905B
:103B7000009802B07047000082B00190019A41F2B3
:103B80001C00C4F202000168114301600068019941
:103B900008400090009802B07047000082B0019089
:103BA000019A41F21C00C4F2020001681143016055
:103BB0000068019908400090009802B0704700002A
:103BC00081B0009000994FF08070486001B070475C
:103BD00084B0DDF810C00390029101920093049824
:103BE000102815D1FFE701980399029A47F65C1354
:103BF000C0F600031A4412F8012C1144C860009862
:103C00000399029A1A4412F8012C1144886014E0B6
:103C100001980399029A47F65C13C0F600031A4410
:103C200012F8012C1144886000980399029A1A44F2
:103C300012F8012C1144C860FFE704B0704700007F
:103C400083B00290019100920298019947F65C13AB
:103C5000C0F60003194411F8011C405847F6F071F2
:103C60008843009908430299019A1A4412F8012CDA
:103C7000885003B07047000082B001900091019914
:103C8000009847F65C12C0F60002104410F8012CB0
:103C9000885820F00100885002B0704782B001902F
:103CA00000910199009847F65C12C0F6000210449A
:103CB00010F8012C885840F00100885002B070477D
:103CC00082B0019000910199009847F65C12C0F60D
:103CD0000002104410F8012C885840F0020088506F
:103CE00002B0704782B0019000910199009847F6A8
:103CF0005C12C0F60002104410F8012C885840F005
:103D00000800885002B0704782B00190009101987D
:103D1000009947F65C12C0F60002114411F8011C2C
:103D20000844406880B202B07047000082B0019041
:103D300000910198009947F65C12C0F60002114408
:103D400011F8011C405844F21001084002B07047BD
:103D500081B0009000980068C0F3406001B07047E7
:103D600082B0019000910198009947F65C12C0F66C
:103D70000002114411F8011C405800F0010002B08B
:103D80007047000082B0019000910198009947F6B9
:103D90005C12C0F60002114411F8011C4058C0F337
:103DA000400002B07047000083B002900191009281
:103DB0000298019947F65C13C0F60003194411F804
:103DC000011C084440684FF6FF718843009908437E
:103DD0000299019A1A4412F8012C1144486003B068
:103DE0007047000081B0009042F20001C4F202016D
:103DF000086820F00700009A1043086001B070477F
:103E000080B588B0039002910298006807900798E7
:103E100090FAA0F005900598B0FA80F00190FFE7C5
:103E2000029800680199C840002853D0FFE7029823
:103E30000068019A012191400840009000980028F4
:103E400044D0FFE702984068012805D0FFE70298B8
:103E5000406802280DD1FFE703980099029A926802
:103E600000F0A8F90398029A1168D26800F026F9C8
:103E7000FFE703980099029A126900F053F902983B
:103E8000406802281BD1FFE700980690069890FA38
:103E9000A0F004900498B0FA80F0072807D8FFE754
:103EA00003980099029A526900F04AF806E00398D4
:103EB0000099029A526900F067F8FFE7FFE703985C
:103EC0000099029A526800F0D5F8FFE70198013096
:103ED0000190A5E7002008B080BD000081B00090EF
:103EE0000098006901B0704782B00190009100987D
:103EF0000199886202B0704787B0029001910092E8
:103F00000298006A01990691069991FAA1F104912B
:103F10000499B1FA81F18A000F21914088430099F8
:103F2000019A0592059A92FAA2F20392039AB2FAC2
:103F300082F29200914008430299086207B07047EC
:103F400087B00290019100920298006A019906914F
:103F5000069991FAA1F104910499B1FA81F18A00CC
:103F60000F21914088430099019A0592059A92FA8F
:103F7000A2F20392039AB2FA82F2920091400843AD
:103F80000299086207B0704787B0029001910092D1
:103F90000298406A0199090A0691069991FAA1F1DD
:103FA00004910499B1FA81F18A000F21914088436C
:103FB0000099019A120A0592059A92FAA2F20392C6
:103FC000039AB2FA82F29200914008430299486241
:103FD00007B0704782B00190009100980199886104
:103FE00002B0704787B00290019100920298006879
:103FF00001990691069991FAA1F104910499B1FAF7
:1040000081F14A000321914088430099019A059269
:10401000059A92FAA2F20392039AB2FA82F252003D
:10402000914008430299086007B0704787B002903A
:10403000019100920298006801990691069991FAFF
:10404000A1F104910499B1FA81F14A000321914050
:1040500088430099019A0592059A92FAA2F2039276
:10406000039AB2FA82F25200914008430299086022
:1040700007B0704787B002900191009202980068E3
:1040800001990691069991FAA1F104910499B1FA66
:1040900081F14A000321914088430099019A0592D9
:1040A000059A92FAA2F20392039AB2FA82F25200AD
:1040B000914008430299086007B0704783B00290AE
:1040C000019100920298406801998843009A5143F7
:1040D00008430299486003B07047000087B002901F
:1040E000019100920298C06801990691069991FA8F
:1040F000A1F104910499B1FA81F14A0003219140A0
:1041000088430099019A0592059A92FAA2F20392C5
:10411000039AB2FA82F25200914008430299C860B1
:1041200007B0704787B00290019100920298C06872
:1041300001990691069991FAA1F104910499B1FAB5
:1041400081F14A000321914088430099019A059228
:10415000059A92FAA2F20392039AB2FA82F25200FC
:10416000914008430299C86007B0704787B0029039
:10417000019100920298806801990691069991FA3E
:10418000A1F104910499B1FA81F14A00032191400F
:1041900088430099019A0592059A92FAA2F2039235
:1041A000039AB2FA82F25200914008430299886061
:1041B00007B0704787B00290019100920298806822
:1041C00001990691069991FAA1F104910499B1FA25
:1041D00081F14A000321914088430099019A059298
:1041E000059A92FAA2F20392039AB2FA82F252006C
:1041F000914008430299886007B0704783B00290ED
:104200000191029840690090009A019802EA000129
:10421000904340EA01400299886103B07047000072
:1042200081B000900099C86940F02000C86101B0D9
:104230007047000081B000900099086840F00100CC
:10424000086001B07047000081B0009000990868D4
:1042500040F00400086001B07047000081B0009099
:104260000099086840F02000086001B07047000025
:1042700081B000900099086840F04000086001B0EB
:104280007047000081B000900099086840F002007B
:10429000086001B07047000084B0DDF814C0DDF89C
:1042A00010C0039002910192009303984068059A10
:1042B00020EA525048F20041CFF6004108400299EE
:1042C000019B1943009B41EA0341049B194311439D
:1042D00008430399486004B07047000081B0009023
:1042E0000098806980B2C00B01B0704781B0009027
:1042F00000988069C0F3800001B0704781B00090E1
:1043000000988069C0F3401001B0704781B0009000
:1043100000988069C0F3801001B0704781B00090B0
:1043200000988069C0F3400001B0704781B00090F0
:104330000098406AC0B201B07047000082B001909E
:10434000009100980199086102B0704782B0019015
:104350008DF803109DF803000199886202B0704740
:1043600080B582B0019001984FF47A7100F002F8A4
:1043700002B080BD82B00190009101980099B0FB1D
:10438000F1F001384EF21401CEF2000108604EF255
:104390001801CEF20001002008604EF21001CEF2AA
:1043A00000010520086002B07047000041F20400DF
:1043B000C4F20200006800F0F000704741F204000F
:1043C000C4F20200006800F4E060704741F20400AB
:1043D000C4F20200006800F46050704741F204002B
:1043E000C4F20200006800F00C00704741F20400C3
:1043F000C4F20200006800F00C00704780B586B07F
:10440000059000200490059870BBFFE7059800F028
:10441000B7F80146039103281DD80399DFE801F09E
:104420001A02110601F0C6FB04901CE000F0CAF865
:1044300030B1FFE741F20020C0F27A000490FFE7BC
:1044400011E000F0C7F820B1FFE74FF400400490FE
:10445000FFE708E0FFE701F0ADFB01F073FB01F0BF
:1044600097FB0490FFE7FFE70598102840D1FFE78E
:10447000059800F085F801460291B0F1805F2DD0DB
:10448000FFE702980021C1F2010188420ED0FFE748
:1044900002980021C1F20201884216D0FFE702987B
:1044A0000021C1F20301884204D018E001F082FB30
:1044B00004901CE000F086F830B1FFE741F20020E4
:1044C000C0F27A000490FFE711E000F083F820B119
:1044D000FFE74FF400400490FFE708E0FFE701F03A
:1044E00069FB01F02FFB01F041FB0490FFE7FFE7C0
:1044F0000598122840D1FFE7059800F041F80146E1
:104500000191B0F1905F2DD0FFE701980021C1F239
:10451000042188420ED0FFE701980021C1F2082152
:10452000884216D0FFE701980021C1F20C21884291
:1045300004D018E001F03EFB04901CE000F042F8CB
:1045400030B1FFE741F20020C0F27A000490FFE7AB
:1045500011E000F03FF820B1FFE74FF40040049075
:10456000FFE708E0FFE701F025FB01F0EBFA01F0BF
:10457000FDFA0490FFE7FFE7049806B080BD000055
:1045800081B0009041F23000C4F20200006800994E
:1045900003228A40104040EA016001B070470000E9
:1045A00041F20001C4F20201086840F48030086062
:1045B0007047000041F20000C4F202000068C0F33E
:1045C0004040704741F20000C4F202000068C0F3AE
:1045D0004000704741F22000C4F202000068C0F3BE
:1045E0004000704782B00190009141F20401C4F292
:1045F0000201086820F47410019A02F48032009BD2
:104600001A431043086041F22C01C4F20201086809
:10461000019A62F30300086002B0704741F20001A2
:10462000C4F20201086840F0807008607047000022
:1046300041F20400C4F20200006800F480307047C8
:1046400041F20400C4F20200006800F470107047E8
:1046500041F22C00C4F20200006800F00F00704725
:1046600041F20000C4F202000068C0F340607047ED
:1046700081B0009041F20401C4F20201086820F008
:10468000F000009A1043086001B0704781B00090BC
:1046900041F20401C4F20201086820F4E060009ACB
:1046A0001043086001B0704781B0009041F20401EE
:1046B000C4F20201086820F46050009A10430860B8
:1046C00001B0704781B0009041F23001C4F20201A4
:1046D0000868009A20EA126022F07F4210430860C6
:1046E00001B0704781B0009041F20401C4F20201B0
:1046F000086820F00300009A1043086001B070477A
:104700004EF21001CEF20001086840F0020008608D
:104710007047000081B00090009840F20C01C2F296
:104720000001086001B0704781B00090009902203C
:10473000086201B07047000081B00090009910201D
:10474000086201B07047000081B000900099082015
:10475000086201B07047000081B00090009901200C
:10476000086201B07047000084B00390029101928A
:1047700000930398006820F4B0500199029A114305
:104780000843039908600398406820F4405000995A
:1047900008430399486004B07047000083B002905A
:1047A0000191019820B9FFE702982830009003E0BA
:1047B000029824300090FFE7009803B07047000093
:1047C00081B000900099086840F00100086001B0D5
:1047D0007047000082B00190FFE7FFE7019850E8C2
:1047E000020F40F040000090FFE70099019A42E874
:1047F00002100028F2D1FFE7FFE702B07047000087
:1048000082B00190FFE7FFE7019850E8020F40F007
:1048100080000090FFE70099019A42E8021000280A
:10482000F2D1FFE7FFE702B07047000082B00190CD
:10483000FFE7FFE7019850E8020F40F00100009009
:10484000FFE70099019A42E802100028F2D1FFE741
:10485000FFE702B07047000082B00190FFE7FFE77A
:10486000019850E8000F40F010000090FFE7009919
:10487000019A42E800100028F2D1FFE7FFE702B0FA
:104880007047000081B000900098C069C0F300102C
:1048900001B0704781B0009000980068C0F300102C
:1048A00001B0704786B0059004910392029303987B
:1048B000B0F5004F19D1FFE704984000029900EBD2
:1048C0005100B0FBF1F080B2019001984FF6F07109
:1048D00008400090019800F00E01009840EA510055
:1048E000009000980599C86009E00498029900EBCF
:1048F0005100B0FBF1F080B20599C860FFE706B047
:104900007047000082B0019000910198406820F447
:104910000020009908430199486002B070470000E8
:1049200083B002900191FFE7FFE7029850E8000F83
:1049300020F00C00019908430090FFE70099029ACB
:1049400042E800100028F0D1FFE7FFE703B070470E
:1049500080B5C8B046908DF8171144929DF81701A4
:10496000449908704699C8680130C86000208DF8E5
:1049700010004698407C01460391052800F20C8106
:104980000399DFE801F0032B4E99C1E89DF8170168
:104990005F2811D0FFE746990868013048604699C2
:1049A0000020487447F69332C0F6000204A84FF482
:1049B0008071FBF7EFFC10E0469908680138486009
:1049C00046990120487447F63B32C0F6000204A81D
:1049D0004FF48071FBF7DEFCFFE7DEE09DF8170186
:1049E000312810D1FFE744993020087046990520FE
:1049F000487447F6A532C0F6000204A84FF480714F
:104A0000FBF7C8FC0CE046990220487447F6C83210
:104A1000C0F6000204A84FF48071FBF7BBFCFFE76F
:104A2000BBE09DF81701302814D1FFE744993920E5
:104A30000870469908680138486046990220487411
:104A400047F62A32C0F6000204A84FF48071FBF743
:104A5000A1FC30E09DF81701312821DBFFE79DF82C
:104A6000170139281CDCFFE79DF81701013844992C
:104A700008704699086801384860469903204874D0
:104A80009DF81731449800786946086047F64C3223
:104A9000C0F6000204A84FF48071FBF77BFC09E02C
:104AA00047F6DA32C0F6000204A84FF48071FBF733
:104AB00071FCFFE7FFE770E09DF817015F2811D058
:104AC000FFE7469908680138486046990320487412
:104AD00047F65F32C0F6000204A84FF48071FBF77E
:104AE00059FC10E046990868013048604699042056
:104AF000487447F68232C0F6000204A84FF4807171
:104B0000FBF748FCFFE748E09DF81701302814D177
:104B1000FFE744995F2008704699086801304860B3
:104B200046990420487447F67132C0F6000204A882
:104B30004FF48071FBF72EFC0CE046990520487479
:104B400047F6B632C0F6000204A84FF48071FBF7B6
:104B500021FCFFE721E047F62032C0F6000204A85E
:104B60004FF48071FBF716FC4698807C40B9FFE754
:104B700047F62531C0F60001042001F097F807E060
:104B800047F62531C0F60001052001F08FF8FFE758
:104B90004FF0FF30479079E0FFE74698253004A9B1
:104BA000FF22FBF7E9FC4699002081F82401469892
:104BB000807CF0B9FFE746984068082819D3FFE7E2
:104BC0004698437C40686946086040F29C10C2F2F7
:104BD0000000029047F6EC32C0F600021021FBF70D
:104BE000D9FB0299042001F061F86FF001004790B1
:104BF0004CE04698807C08281ED1FFE74698406824
:104C0000072819D8FFE74698437C40686946086042
:104C100040F29C10C2F20000019047F6EC32C0F660
:104C200000021021FBF7B6FB0199052001F03EF8C8
:104C30006FF00100479029E046990868096A8842A8
:104C400015D1FFE74699487C91F8241088420ED18F
:104C5000FFE74699C8690130C8614698C0690228D3
:104C600004DBFFE76FF0020047900FE00AE046998F
:104C70000020C8614699086808624699487C81F816
:104C80002400FFE74698C0684790FFE7479848B080
:104C900080BD000080B5A6B00020249040F2CC205A
:104CA000C2F20000007801460D91032800F2028252
:104CB0000D99DFE811F00400EA018B01BD0100202D
:104CC00024A9FEF74FFC002800F07F81FFE740F2A7
:104CD000D520C2F2000000780728C0F25C81FFE70F
:104CE00024980078742840F09D80FFE7249840784D
:104CF0006D2840F09780FFE724988078312840F0B5
:104D00009180FFE72498C078322840F08B80FFE73D
:104D10004FF0FF302390229021902090249804306F
:104D20006A4620A9516021A9116047F6F111C0F629
:104D3000000123AA22ABFBF74DFB2398002857D490
:104D4000FFE72398B0F5006F52DAFFE722980128B9
:104D50004EDBFFE7219800284AD4FFE72198B0F501
:104D6000006F45DAFFE72098012841DBFFE7239A2F
:104D7000229B47F60721C0F60001089118A8099068
:104D8000FBF7F2FA0899219A209B10A80A90FBF7EA
:104D9000EBFA099901200C9000F088FF0A99032092
:104DA00000F084FF239B2298219ADDF880C0694699
:104DB000C1F808C04A60086040F2C510C2F20000A5
:104DC0000B9047F67A12C0F60002FE21FBF7E2FADA
:104DD0000B98FBF74BFB01460C9840F2D022C2F235
:104DE0000002116040F2CC21C2F20001087061E1C2
:104DF00040F2C510C2F20000079047F6CA11C0F693
:104E00000001FBF70FFB0798FBF730FB40F2D021C6
:104E1000C2F20001086040F2CC21C2F20001012080
:104E2000087047E140F2C822C2F2000206924FF039
:104E3000FF30106040F2D023C2F2000318602498C3
:104E4000023047F6FF11C0F60001FBF7C3FA0698DF
:104E50000068002800F19E80FFE740F2C820C2F2FF
:104E600000000068B0F5006F80F29480FFE740F228
:104E7000D020C2F2000000680128C0F28B80FFE75A
:104E800040F2D020C2F200000068FE2800F38280C9
:104E9000FFE72498007872280CD1FFE72498407827
:104EA000642807D1FFE740F2CC21C2F200010220C2
:104EB0000870FFE000200F9024983E21FBF7A8FA2D
:104EC0000F900F982499401A01308DF83B000F98ED
:104ED00000285DD0FFE740F2D020C2F20000006859
:104EE00040F2D521C2F2000109789DF83B20891AD1
:104EF00088424DDCFFE70F9801300F900F9940F288
:104F0000D020C2F20000026840F2C510C2F20000D8
:104F1000FBF7CBFA2498007877280CD1FFE7249888
:104F20004078722807D1FFE740F2CC21C2F200019D
:104F300003200870BEE024980078742827D1FFE78A
:104F4000249840786D2822D1FFE740F2C820C2F2B1
:104F500000000068012808D1FFE740F2C511C2F245
:104F60000001012000F0A2FE10E040F2C820C2F2D1
:104F700000000068022808D1FFE740F2C511C2F224
:104F80000001032000F092FEFFE7FFE792E0FFE759
:104F9000FFE7FFE7FFE740F2C510C2F2000005900F
:104FA00047F6BA11C0F60001FBF73CFA0598FBF78B
:104FB0005DFA40F2D021C2F20001086040F2CC213B
:104FC000C2F2000101200870FFE773E040F2C82040
:104FD000C2F20000006840F2D021C2F2000109686C
:104FE00001F088F92490249808B3FFE740F2D42216
:104FF000C2F20002107840F2D023C2F2000318601F
:10500000D3F800C040F2C510C2F200000A2100F837
:105010000C1019680131196024991278FBF745FAD0
:1050200040F2CC21C2F2000101200870FFE741E00C
:1050300040F2C820C2F20000006840F2D021C2F263
:1050400000010A6840F2C511C2F2000101F0BCF98A
:10505000D0B1FFE740F2C510C2F20000049047F65D
:10506000B211C0F60001FBF7DDF90498FBF7FEF979
:1050700040F2D021C2F20001086040F2CC21C2F21D
:10508000000101200870FFE714E040F2D020C2F2D6
:105090000000017840F2C510C2F2000001F026FBCA
:1050A00038B9FFE740F2CC21C2F2000100200870BD
:1050B000FFE7FFE726B080BD80B540F2D820C2F2FE
:1050C000000000F09BF940F20850C2F2000000F02E
:1050D00095F980BD80B584B00020039040F2B010F7
:1050E000C2F2000000780146009120B1FFE700986D
:1050F000012872D08BE0022003A9FEF733FA0028C2
:105100006AD0FFE703980088ADF80A0000200190FC
:105110000190FFE701980F2841DCFFE7BDF80A0086
:105120000199C840C007A8B3FFE740F2AC11C2F232
:1051300000010B6840F2B112C2F200024B20D054C1
:105140000198013046F26763C6F2666350FB03FCC8
:105150004FEA9C0000EBDC703030D1F800C0944482
:105160008CF801000198013050FB03FC4FEAAC03BE
:1051700003EBDC7303EB8303A0EB430030300B68DD
:1051800013449870086802442020D07008680430E6
:105190000860FFE7FFE7019801300190BAE740F2AD
:1051A000AC10C2F200000068012814DBFFE740F2F7
:1051B000AC11C2F200010A68501C086040F2B11143
:1051C000C2F200010A20885440F2B011C2F200017C
:1051D00001200870FFE7FFE719E040F2AC10C2F2CF
:1051E0000000017840F2B110C2F2000001F07EFA36
:1051F00060B9FFE740F2B011C2F200010020087070
:1052000040F2AC11C2F200010860FFE7FFE704B012
:1052100080BD000080B582B00120FEF7CBF90528E3
:10522000C0F0B480FFE7012000F032FD0020ADF8AF
:10523000060001F00DFAADF8060040F2CD20C2F2F2
:105240000000007801460091042800F29E80009939
:10525000DFE801F0031A284B7600BDF806000128AC
:1052600011DBFFE7BDF8060040F2C211C2F20001F7
:105270000880002000F00CFD40F2CD21C2F20001B8
:1052800001200870FFE780E00020FEF793F90B286B
:1052900007D3FFE740F2CD21C2F2000102200870DF
:1052A000FFE772E0BDF8060040F2C211C2F2000151
:1052B0000988884211D1FFE7002000F0E9FC40F2A4
:1052C000C211C2F20001022000F0F0FC40F2CD2138
:1052D000C2F200010320087006E040F2CD21C2F2C4
:1052E000000100200870FFE74FE0BDF8060040F223
:1052F000C211C2F200010988884219D1FFE70020DB
:10530000FEF758F9B0F5FA7F11D3FFE7002000F05F
:10531000BFFC40F2C211C2F20001022000F0C6FC44
:1053200040F2CD21C2F2000104200870FFE706E040
:1053300040F2CD21C2F2000100200870FFE724E016
:10534000BDF8060040F2C211C2F20001098888428D
:1053500013D1FFE70020FEF72DF9B0F5967F0BD3B0
:10536000FFE7002000F094FC40F2C211C2F20001FD
:10537000022000F09BFCFFE706E040F2CD21C2F2E4
:10538000000100200870FFE7FFE7FFE702B080BDE3
:1053900081B000200090FFE7009805282BDCFFE794
:1053A000009940F26C10C2F2000050F8310002285F
:1053B00009D1FFE7009A40F26C11C2F2000100200F
:1053C00041F83200FFE7009940F26C10C2F2000091
:1053D00050F83100012809D1FFE7009A40F26C1122
:1053E000C2F20001022041F83200FFE7FFE7009817
:1053F00001300090D0E701B07047000010B59CB0BC
:105400001B9000201A9002201AA9FEF7ABF8002882
:1054100047D0FFE71A98002842D0FFE71A98008883
:10542000ADF8660000201890FFE718980F2836DCCA
:10543000FFE7BDF866001899C840C00750B3FFE702
:105440001898072803DCFFE71898089002E01898DE
:105450000890FFE70898179017981B99897C884255
:1054600017D3FFE717981B99897C0831884210D21F
:10547000FFE717981B99C1F828011B995F2081F855
:105480002C011B99012081F826011B990320087427
:105490003BE3FFE7FFE7189801301890C5E7FFE707
:1054A000FFE71B98007D03285DD1FFE704201AA9C0
:1054B000FEF758F8002855D0FFE71A9847F625312F
:1054C000C0F60001FBF784F860B9FFE71B990020E4
:1054D00008741B994FF0FF3088601B99012081F8F8
:1054E0002E0212E31A9847F6EC31C0F6000116AA14
:1054F00015ABFAF76FFF16981B99487415981B990E
:1055000048601B99002081F825011B9981F82E0223
:105510001B9981F82F021B99022008741B98C07CEC
:1055200000F0B6FB1B9A02F22D1002F1150316993A
:10553000D2F804C0D2F80CE06A46C2F808E0C2F81B
:1055400004C0116047F67122C0F600024FF480716A
:10555000FAF720FF1B99012081F82D021B990420E6
:105560000874D2E2FFE71B98007D01285DD1FFE7B8
:1055700005201AA9FDF7F6FF002855D0FFE71A9875
:1055800047F62531C0F60001FBF722F860B9FFE7C6
:105590001B99002008741B994FF0FF3088601B99FD
:1055A000012081F82E02B0E21A9847F6EC31C0F6DD
:1055B000000114AA13ABFAF70DFF14981B99487455
:1055C00013981B9948601B99002081F825011B99AD
:1055D00081F82E021B9981F82F021B990220087472
:1055E0001B98C07C00F054FB1B9A02F22D1002F1B4
:1055F00015031499D2F804C0D2F80CE06A46C2F838
:1056000008E0C2F804C0116047F67122C0F600023B
:105610004FF48071FAF7BEFE1B99012081F82D022C
:105620001B990420087470E2FFE71B98007C014678
:105630000791052800F269820799DFE811F006005A
:10564000CC0090008D01D40146021B98007D1AA960
:10565000FDF788FF002800F08180FFE71A990BA86A
:1056600006901F22FAF788FF069800218DF84B104C
:105670001B9A51600A911B990A1D47F60721C0F633
:1056800000010AABFAF7A6FE1B98807C28B9FFE759
:105690001B98406807280AD8FFE71B98807C0828D9
:1056A0001ED1FFE71B984068072819D8FFE71B9910
:1056B00001F22D1001F1150347F61822C0F6000281
:1056C0004FF48071FAF766FE1B99012081F82D02D4
:1056D0001B99042008741B994FF0FF30886014E276
:1056E0001B9841680020B0EBD12F1DD1FFE70A982D
:1056F000012819DBFFE70A981B9988601B99002095
:10570000C8601B9981F825011B9981F82E021B990D
:1057100081F82F021B9A022111741B9948741B985F
:10572000C07C00F0B5FA18E01B9901F22D1001F1D0
:10573000150347F60D22C0F600024FF48071FAF708
:1057400029FE1B99012081F82D021B990420087461
:105750001B994FF0FF308860FFE7FFE7D5E11B980A
:1057600090F8250108B1FFE7CFE11B994868086070
:105770001B980068B0F5006F19D3FFE71B9901F281
:105780002D1001F1150347F6F722C0F600024FF481
:105790008071FAF7FFFD1B99012081F82D021B99FA
:1057A000042008741B994FF0FF308860ADE11B980E
:1057B0000068012100F09EFD1A901A9850B1FFE791
:1057C0001A98007800F02AFF1B9948761B9901204F
:1057D0000874FFE799E11B98417E00F11A02FFF778
:1057E000B7F8099009980330E0B9FFE71B9901F277
:1057F0002D1001F1150347F6A422C0F600024FF464
:105800008071FAF7C7FD1B99012081F82D021B9AC0
:105810004FF0FF3191601B9981F82E021B990420F3
:10582000087472E109980230A0BBFFE71B9A02F2EC
:105830002D1002F11503D2F800C0D16892F81AE0D9
:1058400002F125046A46D460C2F808E0C2F804C038
:10585000116047F6B622C0F600024FF48071FAF7E5
:1058600099FD1B99012081F82D021B9981F82501D2
:105870001B9981F82F021B98417E807E884204D0BC
:10588000FFE71B990320087403E01B9905200874A7
:10589000FFE73AE10998013030B1FFE709981B9919
:1058A0008968884227D1FFE71B9A02F22D1002F186
:1058B0001503116892F81AC002F1250E6A46C2F863
:1058C00008E0C2F804C0116047F6D822C0F6000212
:1058D0004FF48071FAF75EFD1B99012081F82D02CB
:1058E0001B9A4FF0FF3191601B9981F82E021B9992
:1058F0000420087409E11B9A02F22D1002F115032D
:105900000999D2F800C092F81AE002F125046A461B
:10591000D460C2F808E0C2F804C0116047F6B622AD
:10592000C0F600024FF48071FAF734FD1B99012094
:1059300081F82D02FFE7FFE7FFE71B98417E807E9D
:10594000884204D1FFE71B990420087403E01B99E7
:1059500003200874FFE7D8E01B9890F8260130B3C5
:10596000FFE71B99D1F8280101F5967101220592F4
:1059700000F02AFD1B9901F22D1001F11503D1F859
:1059800028116A46116047F63F22C0F600024FF424
:105990008071FAF7FFFC05981B9981F82D021B997D
:1059A000002081F826011B9904200874ADE01B98A3
:1059B00001680020B0EBD12F07D1FFE71B9951F808
:1059C0001A0B012200F000FDFFE71B9890F825015B
:1059D00020B1FFE71B990520087403E01B99042000
:1059E0000874FFE791E01B98C07CFDF7E3FDFB28FE
:1059F0006AD3FFE71B98C07C00F04AF91B9890F827
:105A00002D0298B1FFE71B9800F22D100490FAF7D1
:105A10002DFD01460498C9B200F068FE28B9FFE7E1
:105A20001B99002081F82D02FFE7FFE71B9890F8F3
:105A30002F02D8B1FFE71B9890F82D02B0B9FFE70D
:105A40001B9901F22D1001F1150347F65C22C0F6F7
:105A500000024FF48071FAF79DFC1B99012081F838
:105A60002D021B99002081F82F022CE01B9890F842
:105A70002E0268B1FFE71B99002008741B9981F87A
:105A800025011B9981F82E021B9981F82F0219E03C
:105A90001B988068013050B9FFE71B9900200874FB
:105AA0001B9981F825011B9981F82F0209E01B98A9
:105AB00090F8250120B9FFE71B9902200874FFE741
:105AC000FFE7FFE7FFE7FFE71FE01B9890F82D02D5
:105AD000B8B9FFE71B9890F82F0290B9FFE71B9920
